S0150000434F325F53656D6170686F72652E7372656348
S11300000C94FD010C94210F0C941A020C941A0206
S11300100C941A020C941A020C941A020C94100FE9
S11300200C941A020C941A020C941A020C941A02DC
S11300300C941A020C941A020C941A020C941A02CC
S11300400C941A020C941A020C94390F0C945D0F40
S11300500C941A020C941A020C941A020C941A02AC
S11300600C94810F0C941A0228084C065606830639
S11300708C06B106C306FD068D0D980CA00CB20CBF
S1130080CB0CDC0CF60C260D370D420D520D210065
S1130090FF0186000000000079FF017900000000E4
S11300A00086FF01990000001388CB0000000000C7
S11300B000000000000020202026202020262020F0
S11300C02024002020202620022026200220240094
S11300D005020126FF022026042020240005020137
S11300E026FF022026040203240006020626FF201F
S11300F0FF26030203240005020126FF2020260414
S11301000203240005020626FF0207260402032434
S11301100005020626FF02FF260420032400050230
S113012006260402FF26040203240005020626FF15
S113013002FF2604020324000002062620050326EB
S1130140200420240005020126FF020626040203DF
S113015024000502012604020626040203240005E5
S11301602006260402FF262020032400000206267F
S113017020020626040203240000020626050203C8
S113018026040203240000FFFE2620FF202604028A
S113019003240005020626FF20FF26040203240090
S11301A0181C1E1F1F1E1C18181E1E1F1F1F1F1F7A
S11301B0030F0F1F1F1F1F1F1F0F0F03000000003F
S11301C01F1E1E18000000001F1F1F1F000000003C
S11301D0181E1E1F00000000030F0F1F0000000068
S11301E01027E80364000A000100640A01AB00F868
S11301F0011902AB0000E002ED0103021902AB0099
S113020000EF02F8010E021902AB00000103030221
S1130210AB001902A80200D002AB009D02AB000E95
S113022002000B03AB0050029D02AB00001603ABAF
S1130230003A025002AB000024032F024502500290
S1130240AB000031033A02AB005002920200D0022C
S1130250240287029D024502003E03AB006602872A
S113026002AB000044035B0271028702AB00005042
S11302700366027C028702AB00005B037102AB00E1
S11302808702920200D002500292029D027C020078
S113029066038702AB009D02A80200D0021902A8DF
S11302A002AB009202006C039D02AB00AB00AB00FA
S11302B001D4020053756E005361740046726900E4
S11302C05468750057656400547565004D6F6E0081
S11302D02A5570004D61696E2073637265656E0006
S11302E048756D6964697479204772617068005457
S11302F0656D7065726174757265204772617068AE
S113030000434F32204772617068004D6F6E69740C
S11303106F72696E67004C4344204261636B6C6981
S11303206768740042757A7A6572207365747570B3
S1130330004C6576656C7320736574757000416C50
S113034061726D0043616C6962726174696F6E0001
S1130350446174652073657475700054696D65201B
S1130360736574757000436C6F636B0053657474CC
S1130370696E6773004F4B004641494C0020002DC5
S1130380002E003A003E00202020DF4320202020C1
S1130390252020202020202070706D00202D3E205C
S11303A0434F32202E2E2E00202D3E204448542030
S11303B02E2E2E0D0A00202D3E20525443202E2E88
S11303C02E0D0A005065726970686572616C207048
S11303D0726573656E63653A0D0A0053573A2031AE
S11303E02E300048573A20312E300053454D4150AD
S11303F0484F524500320043300011241FBECFEF56
S1130400D8E0DEBFCDBF11E0A0E0B1E0EEE5F1E25F
S113041002C005900D92AE39B107D9F723E0AEE9D9
S1130420B1E001C01D92A13DB207E1F70E94E00FC7
S11304300C94AD100C94000008958091B900887F4D
S1130440883209F45EC070F4803191F128F4882375
S1130450F1F0883031F108958831D1F1803209F416
S113046041C00895803409F4A9C038F4803309F4F4
S113047089C0883309F492C00895803509F4A1C075
S1130480883509F4BAC0883409F0D0C02BC084E0A0
S11304908093EC0185E98093BC001092E70181E030
S11304A029C09091EB018091ED01911109C006C022
S11304B09091EB018091ED01923011F4816001C0C3
S11304C08E7F8093ED018091ED018093BB0056C037
S11304D09091150291113EC09091F10191111EC0AD
S11304E085E988C081E08093EC0195E99093BC0094
S11304F01092E7018093E901E0911202F091130256
S113050094C08091EB018130F1F490911502911126
S113051021C09091F101992309F47CC08091EE01EE
S1130520E82FF0E0E951FE4F23852093BB0084318E
S113053020F48F5F8093EE0102C01092EE0191507F
S11305409093F1011BC0823009F070C090911502A4
S11305509923B1F080911402E82FF0E0E951FE4FA5
S113056027A52093BB00823020F48F5F8093140270
S113057002C01092140291509093150285E83AC07B
S113058085EA38C083E08093EC0185E98093BC0060
S11305901092E70181E08093E90143C082E08093F7
S11305A0EC011092EE011092140285EA8093BC00D3
S11305B01092E70181E08093E90108958091F101AF
S11305C016C08091EE019091BB00E82FF0E0E95154
S11305D0FE4F978F8A3020F48F5F8093EE0102C024
S11305E01092EE018091F10181508093F1018130EC
S11305F029F285EC8093BC0008958091BB00E091C2
S1130600EE01F0E0E951FE4F878F8091F1018150B6
S11306108093F10185E98093BC001092E701109268
S1130620E901E0911002F09111020994089588B152
S1130630806388B987B18F7C87B985E08093B800DF
S11306401092B90008959091E801911131C091E0A0
S11306509093E7019093E801442389F092E090930A
S1130660EB01423029F4309316022093170202C0A2
S113067020931602109214024093150202C01092A5
S1130680EB018093ED018CE192E090931102809351
S1130690100290931302809312021092EE011092B2
S11306A0F0016093F10185EA8093BC0081E0089534
S11306B080E008950F931F93DC011092EF011092D4
S11306C0F101942F992381F0E091EF01E43150F48A
S11306D081E08E0F8093EF018C91F0E0E951FE4FA1
S11306E0838711969150EECF81E08093E701809348
S11306F0EB016093ED01223029F41093160200936C
S1130700170202C0009316021092140220931502DD
S11307108CE192E090931102809310029093130263
S1130720809312021092EE014093F10185EA8093C6
S1130730BC001F910F9108951092E801E091F0011F
S1130740EA3048F481E08E0F8093F001F0E0E95143
S1130750FE4F878D089580E008952091C1002F7D7C
S11307602093C10070911C022091C100206220934B
S1130770C100462F50E024E130E0271B3109241743
S1130780350724F1FC01615008F1A0911B0291E0AE
S11307909A0F90931B028491B0E0A85EBD4F15960A
S11307A08C93943110F010921B028091C1008F7DC4
S11307B08093C10080911C028F5F80931C02809102
S11307C0C10080628093C1003196DDCF089580918D
S11307D01C028823A1F0E0911A0291E09E0F9093ED
S11307E01A02F0E0E85EFD4F25812093C6009431A3
S11307F010F010921A02815080931C020895809187
S1130800C1008F7D8093C10008953091C6009091FE
S11308103702911102C03D3001F1809136028B30D4
S113082008F5E091350221E02E0F20933502F0E027
S1130830E85EFD4F30A32A3011F4109235028F5F29
S1130840809336029923E9F098131BC08091C1006C
S11308508F768093C10010923502E0914202F091AC
S113086043020EC081E080931802809319028091A4
S1130870C1008F768093C100E0914402F09145025B
S113088009940895809135028B3010F0109235024E
S1130890E091350281E08E0F80933502F0E0E85E4E
S11308A0FD4F80A10895E8E1F2E0158E168E878F42
S11308B073A762A755A744A7E1ECF0E080818069A3
S11308C0808308951092A101EEE9F1E01182108273
S11308D00895CF93C091A101C130D1F018F0C23076
S11308E091F137C0329906C010929E011092A00176
S11308F081E020C080919E01882359F180939F015B
S11309006FE971E087E00E94BF0D10929E0121C043
S113091087E00E946C0E0A97E0F032990EC0C093F3
S11309209E018091A00191E0980F9093A0018C33D7
S113093030F082E08093A10102C01092A10187E00F
S1130940CF910C94750E329B04C0C0939E011092FB
S1130950A101CF910895EDE9F3E010821182109284
S1130960A70184E00C94750E8091A7018130B1F148
S113097018F1833009F094C08091A20180939F0301
S11309808091A3018093A0038091A4018093A1038B
S11309908091A5018093A2038091A6018093A30373
S11309A01092A4038091A0039091A10397FF62C0C9
S11309B021E02093A4035EC080919D03811170C047
S11309C084E00E946C0E893E934008F469C0569AF4
S11309D05E9884E00E94750E81E049C084E00E9424
S11309E06C0E069708F45CC02FB7F8945E9A80E505
S11309F08A95F1F7569816BC4E9907C086B5853688
S1130A00D8F381E080939D031EC016BC4E9B04C0A6
S1130A1086B58536D8F313C0E7EAF1E01AC016BCF0
S1130A204E991AC0880F36B5333308F0816091505F
S1130A30B9F016BC4E99F3CF36B53536D8F381E00C
S1130A4080939D0382E080939E031092A7012FBFA1
S1130A50089598E080E0EDCF36B5353608F3EFCF52
S1130A60829381E0E23AF807A1F72FBF83E08093F5
S1130A70A70108952AE030E0B9010E949310609321
S1130A80A5038093A6038091A2039091A303B901C7
S1130A900E9493106093A7038093A8031092A70168
S1130AA008951092AB0186E00C94750E8091AB0111
S1130AB0813089F020F0823009F441C0089586E045
S1130AC00E946C0E892B09F447C081E08093AB012E
S1130AD086E00C94750E86B183702091A8019091E4
S1130AE0A901213099F01CF4222331F01DC02230D9
S1130AF091F02330A9F018C0823011F4915003C052
S1130B00813091F49F5F9093A9010EC08823B1F3C3
S1130B108330C1F309C0833089F3882399F304C077
S1130B20813061F3823071F38093A8018091A9012F
S1130B308D5F873078F082E08093AB0108958091D7
S1130B40A9018093AA011092A9016AEA71E086E0E2
S1130B500E94BF0D1092AB01089581E08093B00113
S1130B6082E00C94750E68ED71E080E00E94000B49
S1130B7060ED71E081E00E94000B68EC71E082E0BE
S1130B800E94000B60EC71E083E00E94000B68EBB4
S1130B9071E084E00E94000B60EB71E085E00E944C
S1130BA0000B68EA71E086E00E94000B60EA71E0E5
S1130BB087E00C94000BFF920F931F93CF93DF9366
S1130BC0F62EC42F8052873420F5E82FF0E0EE0F84
S1130BD0FF1FE15FFE4F0081118101151105C9F06E
S1130BE0642F8F2D0E94270BDC2FF801849184320F
S1130BF079F0863239F4F3946C2F8F2D0E94270BF1
S1130C00DC2F03C0DF5F0E94A90B0F5F1F4FEDCFE6
S1130C10CD2F8C2FDF91CF911F910F91FF900895CD
S1130C201F93CF93DF93162FEC018991882329F02A
S1130C30612F0E94DB05482FF8CF842FDF91CF91DD
S1130C401F9108951F93CF93DF93EC01162FFE019C
S1130C508491882331F0612F0E94DB05482F21966F
S1130C60F6CF842FDF91CF911F9108950F931F9397
S1130C70CF93DF9300D000D000D0CDB7DEB7E091A2
S1130C80B0018E2F90E08830910508F0F3C1FC018B
S1130C90EC5CFF4F0C94A71082E00E94060E8823A0
S1130CA009F4E8C10E94B30582E02AC043E060E091
S1130CB087EF93E00E94220669E080E00E94270B00
S1130CC085EF93E00E94720B62E083E00E94270BA1
S1130CD08BEE93E00E94720B6DE080E00E94270B84
S1130CE083EE93E00E94720B6DE081E00E94270B7B
S1130CF08BED93E00E94720B82E00E94750E83E0FC
S1130D008093B001B7C182E00E946C0E813D974090
S1130D1008F4B0C184E0F4CF82E00E946C0E4997DD
S1130D2008F4A8C1809100019FEF980F90930001EF
S1130D30882369F010E060910001812F0E94270B45
S1130D4080E20E94A90B1F5F1430A9F78AC121E039
S1130D5040E060E080E10E94DD090E94AE0B85E086
S1130D60CFCF84EC93E00E94720B86EB93E00E9459
S1130D70720B88EA93E00E94720B8CE993E00E9464
S1130D80720B86E06CC18091AF01823019F408E0E7
S1130D9012E502C004EF11E082E00E946C0E081715
S1130DA0190708F067C18091AF018F5F8093AF018D
S1130DB0823049F0833051F0813069F490918F038F
S1130DC0992399F00CC090919D0302C090919903CE
S1130DD0992329F00AC083E00E94D00D36C162E154
S1130DE00E94270B85E793E005C060E10E94270B72
S1130DF088E793E00E94720B34C18091AC03909118
S1130E00AD038093AD03813021F0823009F4BAC080
S1130E1017C1913091F00E94AE0B61E180E00E9415
S1130E20270B81E893E00E94720B60E083E00E944C
S1130E30270B87E893E00E94720B6FE080E00E942A
S1130E40270B22E040E0BE016F5F7F4F8091940347
S1130E500E947E0E0E943C0B62E180E00E94270B00
S1130E6022E040E0BE016F5F7F4F809195030E94B6
S1130E707E0E0E943C0B60E181E00E94270BE09112
S1130E809303F0E0EE0FFF1FEF5FFE4F808191812F
S1130E900E94720B60E083E00E94270B8091A40300
S1130EA0882319F08FE793E002C08DE793E00E9456
S1130EB0720B22E041E0BE016F5F7F4F8091A5037A
S1130EC00E947E0E0E943C0B67E083E00E94270B89
S1130ED022E041E0BE016F5F7F4F8091A7030E9433
S1130EE07E0E0E943C0B6DE083E00E94270B44E0E1
S1130EF0BE016F5F7F4F80919B0390919C030E9482
S1130F00B70E0E943C0B6CE083E00E94270B80919B
S1130F109903882319F08EE890E002C08DE793E0EE
S1130F200E94720B22E041E0BE016F5F7F4F80910F
S1130F3092030E947E0E40E060E00E941006182F8B
S1130F4022E040E0BE016F5F7F4F809191030E94D9
S1130F507E0E41E0410F60E00E94100666E081E0F1
S1130F600E94270B9091AE0181E089278093AE0106
S1130F70882319F083E893E002C08DE793E00E9490
S1130F80720B60C08091AE03882309F45BC0109299
S1130F90AE030E94AE0B8091AC019091AD01FC01B7
S1130FA032962591349140918D0350918E034217CE
S1130FB0530739F42091AB03222319F021502093D5
S1130FC0AB03FC01859194914817590739F480913A
S1130FD0AB03833018F48F5F8093AB0310E060E0C1
S1130FE0812F0E94270B8091AB03811303C085E8F6
S1130FF093E002C08DE793E00E94720B8091AB03F3
S1131000012F081B61E0812F0E94270B802F0E9473
S11310102E100E94720B62E1812F0E94270B802FF9
S11310200E9458100E94720B1F5F1430C1F6809109
S11310308D0390918E039093AD018093AC0102C017
S11310400E94AE0B82E00E94750E1092B00112C095
S113105082E00E946C0E843F914038F087E08093D8
S1131060B00182E00E94750E05C081E00E94DF0D90
S11310708111F4CF26960FB6F894DEBF0FBECDBF14
S1131080DF91CF911F910F9108951092B4011092A6
S1131090B3010895CF93C091B401C13029F0A8F1F0
S11310A0C23009F453C0B6C081E00E94060E882302
S11310B031F01092B4012A9829982898ABC088E09E
S11310C00E946C0E843F914008F4A4C08091B30147
S11310D0833020F48F5F8093B30102C0C093B301C7
S11310E08091B301823031F0833039F0813049F49A
S11310F02A9A08C02A98299A06C02A982998289AD0
S11311000CC02A982998289808C080E00E94060EEE
S1131110882329F081E08093B40188E078C088E0D6
S11311200E94DF0D882309F475C088E00E94F00D49
S11311309093B2018093B10121E0FC01208382E00D
S11311408093B40188E00E94750E60C0E091B10103
S1131150F091B20184819581019631F489E00E9475
S1131160DF0D882399F00CC088E00E946C0EE0919A
S1131170B101F091B201248135818217930770F394
S11311802A98299828981092B40144C0E091B1019A
S1131190F091B2018081882319F18281813051F06C
S11311A030F0823051F42A982998289A06C02A9A55
S11311B0299802C02A98299A2898E091B101F091BF
S11311C0B2018181882331F189E00E946C0E843F51
S11311D0914000F1E091B101F091B201108216C08A
S11311E02A9829982898E091B101F091B20181815F
S11311F0882381F089E00E946C0E843F914050F076
S1131200E091B101F091B20181E0808389E0CF9156
S11312100C94750ECF91089584E00C94D00D85E064
S11312200C94D00DE8E9F3E01082118281E0809300
S1131230B5010895FC01319691E080E0961720F401
S11312402191820F9F5FFACF81950895CF92DF920B
S1131250EF92FF920F931F93CF93DF93CDB7DEB737
S113126029970FB6F894DEBF0FBECDBF8091B501AC
S1131270813081F008F1833009F445C0843009F0ED
S113128088C08E010F5F1F4F6E0189E0C80ED11C0C
S113129078015AC08091C1008F768093C10069E0C3
S11312A082EA90E00E94AD0369E089E990E00E943F
S11312B0AD031092B50116C085E00E946C0E813218
S11312C09E4408F466C069E080E990E00E94AD03A2
S11312D04FE059E06CE079E089E00E94530483E038
S11312E08093B50185E029960FB6F894DEBF0FBE52
S11312F0CDBFDF91CF911F910F91FF90EF90DF90C1
S1131300CF900C94750E84E00E94DF0D882331F099
S11313101092990384E08093B5013BC085E00E945C
S1131320DF0D882341F081E08093990382E080936C
S11313309A031092B50185E00E946C0EC39748F1A0
S113134081E08093990315C00E944204F8018193BF
S11313508F01EC15FD05C1F70E944204182F68E0C7
S1131360C7010E941A09181739F081E08093990384
S113137084E080939A030BC08B8190E0982F882798
S11313802C81820F911D90939C0380939B03109258
S1131390B50129960FB6F894DEBF0FBECDBFDF911D
S11313A0CF911F910F91FF90EF90DF90CF90089510
S11313B081E08093BA010C94750E90914A02903AA0
S11313C038F55FB7F8949091480230914A02E92FBA
S11313D0F0E0DF01AA0FBB1FAA5BBD4F15968C93EB
S11313E0EE0FFF1FE45BFD4F462B2F73422B408310
S11313F081E0830F903A38F480934A029F5F909380
S113140048025FBF08951092480280934A02F9CFC0
S113141008950F931F93CF93DF9300D000D0CDB7DF
S1131420DEB78091BA01813009F492C030F0823085
S113143061F0833009F458C0DAC080914A028823ED
S113144009F4D5C01092B80181C08091E7018823C6
S113145021F081E00E94750ECAC08091B80181110B
S113146005C080914A0281110BC039C081E00E94FD
S11314706C0E2091B80130E02817390790F3B7C0FB
S1131480815080934A0220914902822F90E0FC010E
S1131490EE0FFF1FE45BFD4F3081432F40784093F4
S11314A0B701432F40744093B6013F733093B801A2
S11314B0880F991FFC01EA5BFD4F85818093B90178
S11314C0203A20F42F5F2093490202C0109249026F
S11314D081E08093460283E08093BA0188C0109231
S11314E046021092BA0183C08091E70181117FC046
S11314F05091B6018091B901682F6295607F282FC1
S1131500207F7091B701FE01319640E0CF01552351
S113151011F04230A9F03EEF340F323010F0208346
S113152001C06083703819F430813160308340FD2C
S113153003C03081326030834F5F3196443039F7D5
S113154000E010E020E060E40E945A0382E0C4CF8F
S113155081E00E946C0E8035910508F448C08FB775
S1131560F894E6E4F2E026E833E015821682329637
S11315702E173F07D1F78FBF24E140E460E080E3FA
S11315800E94DD0925E040E460E080E30E94DD097B
S113159021E040E460E080E30E94DD0920E040E4D3
S11315A060E080E20E94DD0920E040E060E088E243
S11315B00E94DD0920E040E060E088E00E94DD094F
S11315C022E040E060E081E00E94DD0920E040E0AC
S11315D060E08CE00E94DD0920E040E060E086E00D
S11315E00E94DD091092BA0182E00E94FC0D0F9066
S11315F00F900F900F90DF91CF911F910F9108954D
S11316000F931F93CF93DF93EB0128E0829FC001D8
S1131610112420E040E060E080640E94DD098E0136
S1131620085F1F4FFE01849120E040E060E80E94C3
S1131630DD092196C017D107A9F720E040E060E05A
S113164080E8DF91CF911F910F910C94DD09CF9326
S1131650C82F80FF02C080E401C080E0C23008F0DF
S11316608C5E860F21E040E060E080680E94DD0926
S1131670C0934702CF9108950F931F93CF93DF93A5
S11316808C01F801C1918F01CC2339F1CA3031F0BA
S1131690CD3071F0C930D1F4D4E010C0809147024C
S11316A0843020F48F5F8093470202C01092470277
S11316B060E0809147020E94270BE3CF20E040E0E6
S11316C060E880E20E94DD09D150C1F720E040E0EB
S11316D060E88C2F0E94DD09D4CFDF91CF911F9158
S11316E00F9108950F931F93CF93DF938C01F8010B
S11316F0C491CC2349F1CA3031F0CD3071F0C930F6
S1131700D1F4D4E010C080914702843020F48F5F7C
S11317108093470202C01092470260E08091470222
S11317200E94270B0EC020E040E060E880E20E94A7
S1131730DD09D150C1F720E040E060E88C2F0E9421
S1131740DD090F5F1F4FD3CFDF91CF911F910F9111
S1131750089520E040E060E80C94DD0922E040E0D8
S113176060E081E00E94DD0910924702089581E063
S11317708093C10180E00C94750E8091C101813089
S113178009F49AC020F0823009F4A3C0089587E0D8
S11317900E94DF0D882369F187E00E94F00DFC01AF
S11317A090818091AC03923061F4823011F1909376
S11317B0AC031092AB030E94241081E00E94D00D70
S11317C018C08230B1F480918D0390918E03FC0196
S11317D03896E491E13011F4E093AC031092AB033A
S11317E0FC013696859194910E94181081E00C9426
S11317F0D00D86E00E94DF0D8823B9F086E00E94B8
S1131800F00D2091AC03223081F4FC018081E09141
S11318108D03F0918E0318160CF0329685919491F5
S11318200E94181081E00E94D00D809199038111CB
S11318305DC00E946C0E883E934008F457C08091AE
S11318409B0390919C03853823E0920718F410922F
S1131850BC0109C09C01255833402436310528F4C5
S113186081E08093BC0182E012C09C01295E334078
S11318702C3B324020F41092BC0181E008C0855A10
S113188096408C32914030F481E08093BC01809387
S1131890BD0104C01092BC011092BD018FEF9FEFF7
S11318A09093C0018093BF016BEB71E088E00E94CC
S11318B0BF0D80E00C94750E80E00E946C0E85369E
S11318C09105A0F080E00E94FC0D82E08093C101AC
S11318D0089583E00E94DF0D882341F081E00E9497
S11318E0FC0D1092C10181E08093AC030895109225
S11318F0C20108958091C201089581E08093D101CD
S113190083E00C94750EFF920F931F93CF93DF9394
S11319101F92CDB7DEB7E091D1018E2F90E08B30CE
S1131920910508F010C1FC01E45CFF4F0C94A71072
S113193083E00E946C0E449708F405C182E00FC056
S11319408091E7018111FFC02FE330E042E061E0C4
S11319508EED0E942303882309F4F5C083E080936D
S1131960D101F1C08091E7018111EDC08091E901BD
S113197081110EC011E010938F030E949C0380FF1D
S113198004C082E08093C301C5C01093C301C2C0E8
S113199010928F03BFC08091E7018111D4C082E00F
S11319A089830FE310E022E041E06EEDCE01019661
S11319B00E945A0385E0D3CF8091E7018111C3C00F
S11319C086E0F82EF9820FE310E022E041E06EEDAC
S11319D0CE0101960E945A038091C3018130A1F186
S11319E0823009F097C0F092D101ADC08091E70137
S11319F08111A9C00E94070F8093C40184E30E944F
S1131A00070F8093C5018EE00E94070F80688093C2
S1131A10C60181E00E94070F8093C70182E00E9403
S1131A20070F8093C80183E10E94070F8093C901C7
S1131A3084E08093CA0100E310E022E047E06EED09
S1131A4084EC91E00E945A0387E089CF8091E701FA
S1131A50811179C088E1898301E110E022E041E04D
S1131A606EEDCE0101960E945A0388E067C083E0C0
S1131A700E946C0E0C9708F466C01092C301109279
S1131A80D1015EC08091E70181115DC020E330E0A7
S1131A9042E067E08EED0E942303882309F453C0DB
S1131AA08AE05DCF8091E70181114DC004EC11E023
S1131AB00E949C03F80181938F01F1E00B3C1F0706
S1131AC0B9F78091C4010E94FE0E80939003809127
S1131AD0C5010E94FE0E809391038091C6018F7709
S1131AE00E94FE0E809392038091CA018093930317
S1131AF08091C7010E94FE0E809394038091C801D7
S1131B000E94FE0E809395038091C9010E94FE0EEF
S1131B10809396031092D10116C080918F0388237D
S1131B2091F08091C301882311F084E018CF83E001
S1131B300E946C0E843F914030F089E08093D10183
S1131B4083E00E94750E0F90DF91CF911F910F914A
S1131B50FF90089580E090E0FC01EE0FFF1FE80F76
S1131B60F91FED54FC4F108201968A309105A1F7BC
S1131B701092B0031092B1031092B203089590E052
S1131B80FC01EE0FFF1F8E0F9F1FFC01ED54FC4F55
S1131B908081811104C081E0808372836183089510
S1131BA090E0FC01EE0FFF1F8E0F9F1FFC01ED5410
S1131BB0FC4F8081811102C081E08083089590E010
S1131BC0FC01EE0FFF1F8E0F9F1FFC01ED54FC4F15
S1131BD08081823019F4108281E0089580E00895B4
S1131BE090E0FC01EE0FFF1F8E0F9F1FFC01ED54D0
S1131BF0FC4F818192810895E82FF0E0E055FC4F7D
S1131C008081811102C081E080830895E82FF0E093
S1131C10E055FC4F908181E0923009F080E0089516
S1131C202FB7F89480E090E032E0FC01EE0FFF1F44
S1131C30DF01A80FB91FAD54BC4F4C91423009F4D9
S1131C401C92E80FF91FED54FC4F4081413009F418
S1131C50308301968A30910541F780E090E032E0CC
S1131C60FC01E055FC4F4081423009F41082408170
S1131C70413009F4308301968330910589F72FBFF1
S1131C80089580E090E0FC01EE0FFF1FEE52FE4F3E
S1131C901182108201968A309105A9F70895FC01FA
S1131CA04081AFB7F8944423A9F020E030E050E03D
S1131CB0F901EE0FFF1FEE52FE4F60817181640F38
S1131CC0751F718360832F5F3F4F2A30310581F781
S1131CD0FC011082AFBF0895E82FF0E0EE0FFF1F64
S1131CE0EE52FE4F808191810895E82FF0E0EE0FCF
S1131CF0FF1FEE52FE4F118210820895CF93DF939F
S1131D00DB01EAEEF1E0EB016D5F7F4F349190E08F
S1131D10831718F09F5F831BFBCF905D99933196D7
S1131D20C617D70799F713961C921397442369F0A3
S1131D308C91803351F480E28C9311969C9111978D
S1131D40903319F411968C931197CD0143E050E030
S1131D50BA01621B71099B01482F4A1B50E04217CC
S1131D60530714F40196F8CFDF91CF910895CF92E1
S1131D70DF92EF92FF920F931F93CF93DF938C0127
S1131D8020EE31E0DB016B0185E0C80ED11CEB01D4
S1131D90F901E590F49090E00E151F0520F09F5F87
S1131DA00E191F09F9CF905D99932E5F3F4FCC1503
S1131DB0DD0571F7FB011582CB01049620E23C910D
S1131DC0303331F0CB0125E030E0241B310905C06C
S1131DD02D938A179B07B1F3F2CF482F461B50E08F
S1131DE04217530714F40196F8CFDF91CF911F9156
S1131DF00F91FF90EF90DF90CF900895982F9295D8
S1131E009F708F702AE0929F800D112408956AE0DC
S1131E100E94871020E1829F900D1124892F08953C
S1131E201F920F920FB60F9211248F938091E601A7
S1131E308F5F8093E6018F910F900FBE0F901F90DC
S1131E4018951F920F920FB60F9211248F939F93A0
S1131E50EF93FF93E9EAF3E0908181E0892780839F
S1131E60FF91EF919F918F910F900FBE0F901F9054
S1131E7018951F920F920FB60F9211242F933F9330
S1131E804F935F936F937F938F939F93AF93BF937E
S1131E90EF93FF930E940504FF91EF91BF91AF91DF
S1131EA09F918F917F916F915F914F913F912F916E
S1131EB00F900FBE0F901F9018951F920F920FB6A0
S1131EC00F9211242F933F934F935F936F937F93BC
S1131ED08F939F93AF93BF93EF93FF930E94E70376
S1131EE0FF91EF91BF91AF919F918F917F916F91EE
S1131EF05F914F913F912F910F900FBE0F901F90C4
S1131F0018951F920F920FB60F9211242F933F939F
S1131F104F935F936F937F938F939F93AF93BF93ED
S1131F20EF93FF930E941D02FF91EF91BF91AF9138
S1131F309F918F917F916F915F914F913F912F91DD
S1131F400F900FBE0F901F90189594E0909364002B
S1131F5082E08093B0009093B1009DE79093B3002A
S1131F601092B200E0E7F0E090819260908314BC9C
S1131F7085BDEEE6F0E090819E7F908316BC1092C2
S1131F80C50093E39093C400E1ECF0E098E0908303
S1131F9096E09093C20090819062908352988093CF
S1131FA0690081E08DBB3A9887B18C7F87B9229A0A
S1131FB02A98219A2998209A2898559A5D9A0895E2
S1131FC00E94A50F0E94AA0D0E94410E0E941703B1
S1131FD00E94B70B0E94770C0E94D8090E94AD059D
S1131FE00E947D0C0E9412090E94AB040E946204AC
S1131FF00E9451050E944508789486EE91E00E9463
S11320004F0E0E94BD0B0E947A0C0E94090A0E9486
S113201036060E94830C0E94B4040E9426090E9482
S113202069040E9456050E944A080E94100EE5CFDA
S113203020E08B3A920739F090938E0380938D03BE
S113204081E08093AE03089588EA92E090938E0332
S113205080938D0381E08093AE030895E0918D0316
S1132060F0918E0390E0EB3AF907F9F018169CF41E
S113207090E0EB3AF90719F025913491F901815078
S1132080B9F70BC090E0EB3AF90721F032962591AD
S11320903491F9018F5F8111F5CF80E0EB3AF807B5
S11320A021F0399685919491089583EB92E00895F7
S11320B0E0918D03F0918E0320E0EB3AF20721F1D9
S11320C018169CF490E0EB3AF90719F02591349135
S11320D0F9018150B9F70BC020E0EB3AF20721F087
S11320E0329625913491F9018F5F8111F5CF80E00B
S11320F0EB3AF80749F03696859194918B5A9040C3
S113210019F085E893E0089583EB92E00895991B14
S113211079E004C0991F961708F0961B881F7A95DA
S1132120C9F780950895AA1BBB1B51E107C0AA1FDC
S1132130BB1FA617B70710F0A61BB70B881F991F64
S11321405A95A9F780959095BC01CD010895EE0F9D
S1112150FF1F0590F491E02D0994F894FFCF41
S113215E14CC02C802C402C002BC02B802B402B655
S113216E000000000000000000000000000000005D
S113217E00000000000000000000000000000093BA
S113218E01860179016C015F015201450138012B71
S113219E011E01C30000000000000000000000004A
S11321AE0011010401F700EA00DD00D00000000078
S11321BE000000000000000000000000000000000D
S11321CE00000000000000000000000000000000FD
S11321DE00000000000000000000000000000000ED
S11121EE0011010401F700EA00DD00D000003A
S9030000FC
