S0150000434F325F53656D6170686F72652E7372656348
S11300000C94FD010C94270F0C941A020C941A0200
S11300100C941A020C941A020C941A020C94160FE3
S11300200C941A020C941A020C941A020C941A02DC
S11300300C941A020C941A020C941A020C941A02CC
S11300400C941A020C941A020C943F0F0C94630F34
S11300500C941A020C941A020C941A020C941A02AC
S11300600C94870F0C941A022E0852065C0689061B
S11300709206B706C9060307930D9E0CA60CB80C8E
S1130080D10CE20CFC0C2C0D3D0D480D580D21003B
S1130090FF0186000000000079FF017900000000E4
S11300A00086FF01990000001388CB0000000000C7
S11300B000000000000020202026202020262020F0
S11300C02024002020202620022026200220240094
S11300D005020126FF022026042020240005020137
S11300E026FF022026040203240006020626FF201F
S11300F0FF26030203240005020126FF2020260414
S11301000203240005020626FF0207260402032434
S11301100005020626FF02FF260420032400050230
S113012006260402FF26040203240005020626FF15
S113013002FF2604020324000002062620050326EB
S1130140200420240005020126FF020626040203DF
S113015024000502012604020626040203240005E5
S11301602006260402FF262020032400000206267F
S113017020020626040203240000020626050203C8
S113018026040203240000FFFE2620FF202604028A
S113019003240005020626FF20FF26040203240090
S11301A0181C1E1F1F1E1C18181E1E1F1F1F1F1F7A
S11301B0030F0F1F1F1F1F1F1F0F0F03000000003F
S11301C01F1E1E18000000001F1F1F1F000000003C
S11301D0181E1E1F00000000030F0F1F0000000068
S11301E01027E80364000A000100640A01AB00F868
S11301F0011902AB0000E002ED0103021902AB0099
S113020000EF02F8010E021902AB00000103030221
S1130210AB001902A80200D002AB009D02AB000E95
S113022002000B03AB0050029D02AB00001603ABAF
S1130230003A025002AB000024032F024502500290
S1130240AB000031033A02AB005002920200D0022C
S1130250240287029D024502003E03AB006602872A
S113026002AB000044035B0271028702AB00005042
S11302700366027C028702AB00005B037102AB00E1
S11302808702920200D002500292029D027C020078
S113029066038702AB009D02A80200D0021902A8DF
S11302A002AB009202006C039D02AB00AB00AB00FA
S11302B001D4020053756E005361740046726900E4
S11302C05468750057656400547565004D6F6E0081
S11302D02A5570004D61696E2073637265656E0006
S11302E048756D6964697479204772617068005457
S11302F0656D7065726174757265204772617068AE
S113030000434F32204772617068004D6F6E69740C
S11303106F72696E67004C4344204261636B6C6981
S11303206768740042757A7A6572207365747570B3
S1130330004C6576656C7320736574757000416C50
S113034061726D0043616C6962726174696F6E0001
S1130350446174652073657475700054696D65201B
S1130360736574757000436C6F636B0053657474CC
S1130370696E6773004F4B004641494C0020002DC5
S1130380002E003A003E00202020DF4320202020C1
S1130390252020202020202070706D00202D3E205C
S11303A0434F32202E2E2E00202D3E204448542030
S11303B02E2E2E0D0A00202D3E20525443202E2E88
S11303C02E0D0A005065726970686572616C207048
S11303D0726573656E63653A0D0A0053573A2031AE
S11303E02E300048573A20312E300053454D4150AD
S11303F0484F524500320043300011241FBECFEF56
S1130400D8E0DEBFCDBF11E0A0E0B1E0E2E7F1E269
S113041002C005900D92AE39B107D9F723E0AEE9D9
S1130420B1E001C01D92A23DB207E1F70E94E60FC0
S11304300C94B7100C94000008958091B900887F43
S1130440883209F45EC070F4803191F128F4882375
S1130450F1F0883031F108958831D1F1803209F416
S113046041C00895803409F4A9C038F4803309F4F4
S113047089C0883309F492C00895803509F4A1C075
S1130480883509F4BAC0883409F0D0C02BC084E0A0
S11304908093ED0185E98093BC001092E80181E02E
S11304A029C09091EC018091EE01911109C006C020
S11304B09091EC018091EE01923011F4816001C0C1
S11304C08E7F8093EE018091EE018093BB0056C035
S11304D09091160291113EC09091F20191111EC0AB
S11304E085E988C081E08093ED0195E99093BC0093
S11304F01092E8018093EA01E0911302F091140252
S113050094C08091EC018130F1F490911602911124
S113051021C09091F201992309F47CC08091EF01EC
S1130520E82FF0E0E851FE4F23852093BB0084318F
S113053020F48F5F8093EF0102C01092EF0191507D
S11305409093F2011BC0823009F070C090911602A2
S11305509923B1F080911502E82FF0E0E851FE4FA5
S113056027A52093BB00823020F48F5F809315026F
S113057002C01092150291509093160285E83AC079
S113058085EA38C083E08093ED0185E98093BC005F
S11305901092E80181E08093EA0143C082E08093F5
S11305A0ED011092EF011092150285EA8093BC00D0
S11305B01092E80181E08093EA0108958091F201AC
S11305C016C08091EF019091BB00E82FF0E0E85154
S11305D0FE4F978F8A3020F48F5F8093EF0102C023
S11305E01092EF018091F20181508093F2018130E9
S11305F029F285EC8093BC0008958091BB00E091C2
S1130600EF01F0E0E851FE4F878F8091F2018150B5
S11306108093F20185E98093BC001092E801109266
S1130620EA01E0911102F09112020994089588B14F
S1130630806388B987B18F7C87B985E08093B800DF
S11306401092B90008959091E901911131C091E09F
S11306509093E8019093E901442389F092E0909308
S1130660EC01423029F4309317022093180202C09F
S113067020931702109215024093160202C01092A2
S1130680EC018093EE018CE192E09093120280934E
S1130690110290931402809313021092EF011092AE
S11306A0F1016093F20185EA8093BC0081E0089532
S11306B080E008950F931F93DC011092F0011092D3
S11306C0F201942F992381F0E091F001E43150F488
S11306D081E08E0F8093F0018C91F0E0E851FE4FA1
S11306E0838711969150EECF81E08093E801809347
S11306F0EC016093EE01223029F410931702009369
S1130700180202C0009317021092150220931602D9
S11307108CE192E090931202809311029093140260
S1130720809313021092EF014093F20185EA8093C3
S1130730BC001F910F9108951092E901E091F1011D
S1130740EA3048F481E08E0F8093F101F0E0E85143
S1130750FE4F878D089580E008952091C1002F7D7C
S11307602093C10070911D022091C100206220934A
S1130770C100462F50E024E130E0271B3109241743
S1130780350724F1FC01615008F1A0911C0291E0AD
S11307909A0F90931C028491B0E0A75EBD4F15960A
S11307A08C93943110F010921C028091C1008F7DC3
S11307B08093C10080911D028F5F80931D02809100
S11307C0C10080628093C1003196DDCF089580918D
S11307D01D028823A1F0E0911B0291E09E0F9093EB
S11307E01B02F0E0E75EFD4F25812093C6009431A3
S11307F010F010921B02815080931D020895809185
S1130800C1008F7D8093C10008953091C6009091FE
S11308103802911102C03D3001F1809137028B30D2
S113082008F5E091360221E02E0F20933602F0E025
S1130830E75EFD4F30A32A3011F4109236028F5F29
S1130840809337029923E9F098131BC08091C1006B
S11308508F768093C10010923602E0914302F091AA
S113086044020EC081E08093190280931A028091A1
S1130870C1008F768093C100E0914502F091460259
S113088009940895809136028B3010F0109236024C
S1130890E091360281E08E0F80933602F0E0E75E4D
S11308A0FD4F80A10895E9E1F2E0158E168E878F41
S11308B073A762A755A744A7E1ECF0E080818069A3
S11308C0808308951092A101EEE9F1E01182108273
S11308D00895CF93C091A101C130D1F018F0C23076
S11308E091F137C0329906C010929E011092A00176
S11308F081E020C080919E01882359F180939F015B
S11309006FE971E087E00E94C50D10929E0121C03D
S113091087E00E94720E0A97E0F032990EC0C093ED
S11309209E018091A00191E0980F9093A0018C33D7
S113093030F082E08093A10102C01092A10187E00F
S1130940CF910C947B0E329B04C0C0939E011092F5
S1130950A101CF9108951092A20108958091A2015E
S11309600895EEE9F3E0108211821092A80184E068
S11309700C947B0E8091A8018130B1F118F1833081
S113098009F094C08091A3018093A0038091A401F5
S11309908093A1038091A5018093A2038091A60175
S11309A08093A3038091A7018093A4031092A503CD
S11309B08091A1039091A20397FF62C021E020934C
S11309C0A5035EC080919E03811170C084E00E94E3
S11309D0720E893E934008F469C0569A5E9884E08A
S11309E00E947B0E81E049C084E00E94720E06974B
S11309F008F45CC02FB7F8945E9A80E58A95F1F705
S1130A00569816BC4E9907C086B58536D8F381E052
S1130A1080939E031EC016BC4E9B04C086B58536CB
S1130A20D8F313C0E8EAF1E01AC016BC4E991AC014
S1130A30880F36B5333308F081609150B9F016BC95
S1130A404E99F3CF36B53536D8F381E080939E03C3
S1130A5082E080939F031092A8012FBF089598E02D
S1130A6080E0EDCF36B5353608F3EFCF829381E0E1
S1130A70E33AF807A1F72FBF83E08093A801089514
S1130A802AE030E0B9010E949D106093A603809390
S1130A90A7038091A3039091A403B9010E949D1020
S1130AA06093A8038093A9031092A801089510925B
S1130AB0AC0186E00C947B0E8091AC01813089F00E
S1130AC020F0823009F441C0089586E00E94720E3D
S1130AD0892B09F447C081E08093AC0186E00C9433
S1130AE07B0E86B183702091A9019091AA012130D7
S1130AF099F01CF4222331F01DC0223091F02330F0
S1130B00A9F018C0823011F4915003C0813091F4DF
S1130B109F5F9093AA010EC08823B1F38330C1F381
S1130B2009C0833089F3882399F304C0813061F3C9
S1130B30823071F38093A9018091AA018D5F87307F
S1130B4078F082E08093AC0108958091AA018093AB
S1130B50AB011092AA016BEA71E086E00E94C50D18
S1130B601092AC01089581E08093B10182E00C946D
S1130B707B0E68ED71E080E00E94060B60ED71E091
S1130B8081E00E94060B68EC71E082E00E94060B93
S1130B9060EC71E083E00E94060B68EB71E084E096
S1130BA00E94060B60EB71E085E00E94060B68EA88
S1130BB071E086E00E94060B60EA71E087E00C9425
S1130BC0060BFF920F931F93CF93DF93F62EC42F40
S1130BD08052873420F5E82FF0E0EE0FFF1FE15F2D
S1130BE0FE4F0081118101151105C9F0642F8F2D6D
S1130BF00E942D0BDC2FF8018491843279F0863227
S1130C0039F4F3946C2F8F2D0E942D0BDC2F03C02D
S1130C10DF5F0E94AF0B0F5F1F4FEDCFCD2F8C2FE7
S1130C20DF91CF911F910F91FF9008951F93CF9360
S1130C30DF93162FEC018991882329F0612F0E94FC
S1130C40E105482FF8CF842FDF91CF911F910895AC
S1130C501F93CF93DF93EC01162FFE018491882319
S1130C6031F0612F0E94E105482F2196F6CF842FA1
S1130C70DF91CF911F9108950F931F93CF93DF932B
S1130C8000D000D000D0CDB7DEB7E091B1018E2FF7
S1130C9090E08830910508F0F3C1FC01EC5CFF4F53
S1130CA00C94B11082E00E940C0E882309F4E8C170
S1130CB00E94B90582E02AC043E060E087EF93E038
S1130CC00E94280669E080E00E942D0B85EF93E0E6
S1130CD00E94780B62E083E00E942D0B8BEE93E080
S1130CE00E94780B6DE080E00E942D0B83EE93E070
S1130CF00E94780B6DE081E00E942D0B8BED93E058
S1130D000E94780B82E00E947B0E83E08093B10105
S1130D10B7C182E00E94720E813D974008F4B0C1D1
S1130D2084E0F4CF82E00E94720E499708F4A8C1CF
S1130D30809100019FEF980F90930001882369F040
S1130D4010E060910001812F0E942D0B80E20E942F
S1130D50AF0B1F5F1430A9F78AC121E040E060E0C7
S1130D6080E10E94E3090E94B40B85E0CFCF84ECBC
S1130D7093E00E94780B86EB93E00E94780B88EA5C
S1130D8093E00E94780B8CE993E00E94780B86E054
S1130D906CC18091B001823019F408E012E502C000
S1130DA004EF11E082E00E94720E0817190708F0A0
S1130DB067C18091B0018F5F8093B001823049F0A8
S1130DC0833051F0813069F490919003992399F024
S1130DD00CC090919E0302C090919A03992329F02C
S1130DE00AC083E00E94D60D36C162E10E942D0B39
S1130DF085E793E005C060E10E942D0B88E793E04E
S1130E000E94780B34C18091AD039091AE0380931E
S1130E10AE03813021F0823009F4BAC017C1913099
S1130E2091F00E94B40B61E180E00E942D0B81E8F7
S1130E3093E00E94780B60E083E00E942D0B87E82A
S1130E4093E00E94780B6FE080E00E942D0B22E07B
S1130E5040E0BE016F5F7F4F809195030E94840E36
S1130E600E94420B62E180E00E942D0B22E040E0F0
S1130E70BE016F5F7F4F809196030E94840E0E9493
S1130E80420B60E181E00E942D0BE0919403F0E0BD
S1130E90EE0FFF1FEF5FFE4F808191810E94780B60
S1130EA060E083E00E942D0B8091A503882319F054
S1130EB08FE793E002C08DE793E00E94780B22E075
S1130EC041E0BE016F5F7F4F8091A6030E94840EB4
S1130ED00E94420B67E083E00E942D0B22E041E078
S1130EE0BE016F5F7F4F8091A8030E94840E0E9411
S1130EF0420B6DE083E00E942D0B44E0BE016F5F66
S1130F007F4F80919C0390919D030E94BD0E0E948F
S1130F10420B6CE083E00E942D0B80919A0388239E
S1130F2019F08EE890E002C08DE793E00E94780B00
S1130F3022E041E0BE016F5F7F4F809193030E94E6
S1130F40840E40E060E00E941606182F22E040E084
S1130F50BE016F5F7F4F809192030E94840E41E037
S1130F60410F60E00E94160666E081E00E942D0BAE
S1130F709091AF0181E089278093AF01882319F014
S1130F8083E893E002C08DE793E00E94780B60C091
S1130F908091AF03882309F45BC01092AF030E94D1
S1130FA0B40B8091AD019091AE01FC013296259174
S1130FB0349140918E0350918F034217530739F4B3
S1130FC02091AC03222319F021502093AC03FC019F
S1130FD0859194914817590739F48091AC03833073
S1130FE018F48F5F8093AC0310E060E0812F0E94BF
S1130FF02D0B8091AC03811303C085E893E002C0FC
S11310008DE793E00E94780B8091AC03012F081BBD
S113101061E0812F0E942D0B802F0E9438100E94C6
S1131020780B62E1812F0E942D0B802F0E946210A9
S11310300E94780B1F5F1430C1F680918E0390914B
S11310408F039093AE018093AD0102C00E94B40B54
S113105082E00E947B0E1092B10112C082E00E94D5
S1131060720E843F914038F087E08093B10182E0B2
S11310700E947B0E05C081E00E94E50D8111F4CF32
S113108026960FB6F894DEBF0FBECDBFDF91CF9189
S11310901F910F9108951092B5011092B401089513
S11310A0CF93C091B501C13029F0A8F1C23009F441
S11310B053C0B6C081E00E940C0E882331F0109218
S11310C0B5012A9829982898ABC088E00E94720E2E
S11310D0843F914008F4A4C08091B401833020F48B
S11310E08F5F8093B40102C0C093B4018091B401B6
S11310F0823031F0833039F0813049F42A9A08C0C3
S11311002A98299A06C02A982998289A0CC02A98BD
S11311102998289808C080E00E940C0E882329F0A2
S113112081E08093B50188E078C088E00E94E50DF5
S1131130882309F475C088E00E94F60D9093B301EA
S11311408093B20121E0FC01208382E08093B50109
S113115088E00E947B0E60C0E091B201F091B3017F
S113116084819581019631F489E00E94E50D8823FC
S113117099F00CC088E00E94720EE091B201F091E7
S1131180B301248135818217930770F32A98299833
S113119028981092B50144C0E091B201F091B301D6
S11311A08081882319F18281813051F030F08230BE
S11311B051F42A982998289A06C02A9A299802C094
S11311C02A98299A2898E091B201F091B30181817B
S11311D0882331F189E00E94720E843F914000F12E
S11311E0E091B201F091B301108216C02A982998B7
S11311F02898E091B201F091B3018181882381F0B4
S113120089E00E94720E843F914050F0E091B20157
S1131210F091B30181E0808389E0CF910C947B0E3F
S1131220CF91089584E00C94D60D85E00C94D60DEE
S1131230E9E9F3E01082118281E08093B601089518
S1131240FC01319691E080E0961720F42191820F01
S11312509F5FFACF81950895CF92DF92EF92FF922C
S11312600F931F93CF93DF93CDB7DEB729970FB6B4
S1131270F894DEBF0FBECDBF8091B601813081F0FE
S113128008F1833009F445C0843009F088C08E0128
S11312900F5F1F4F6E0189E0C80ED11C78015AC040
S11312A08091C1008F768093C10069E082EA90E06A
S11312B00E94AD0369E089E990E00E94AD031092B9
S11312C0B60116C085E00E94720E81329E4408F475
S11312D066C069E080E990E00E94AD0345E159E011
S11312E062E179E089E00E94530483E08093B601CF
S11312F085E029960FB6F894DEBF0FBECDBFDF910F
S1131300CF911F910F91FF90EF90DF90CF900C94AD
S11313107B0E84E00E94E50D882331F010929A033D
S113132084E08093B6013BC085E00E94E50D8823EC
S113133041F081E080939A0382E080939B031092B2
S1131340B60185E00E94720EC39748F181E0809354
S11313509A0315C00E944204F80181938F01EC1591
S1131360FD05C1F70E944204182F68E0C7010E94DE
S11313702009181739F081E080939A0384E0809360
S11313809B030BC08B8190E0982F88272C81820FC0
S1131390911D90939D0380939C031092B60129960E
S11313A00FB6F894DEBF0FBECDBFDF91CF911F9172
S11313B00F91FF90EF90DF90CF90089581E080939C
S11313C0BB010C947B0E90914B02903A38F55FB7B9
S11313D0F8949091490230914B02E92FF0E0DF013B
S11313E0AA0FBB1FA95BBD4F15968C93EE0FFF1F71
S11313F0E35BFD4F462B2F73422B408381E0830F29
S1131400903A38F480934B029F5F909349025FBFF8
S113141008951092490280934B02F9CF08950F93D7
S11314201F93CF93DF9300D000D0CDB7DEB7809168
S1131430BB01813009F492C030F0823061F0833016
S113144009F458C0DAC080914B02882309F4D5C04E
S11314501092B90181C08091E801882321F081E0D4
S11314600E947B0ECAC08091B901811105C0809190
S11314704B0281110BC039C081E00E94720E209191
S1131480B90130E02817390790F3B7C08150809331
S11314904B0220914A02822F90E0FC01EE0FFF1FC5
S11314A0E35BFD4F3081432F40784093B801432FD5
S11314B040744093B7013F733093B901880F991F6B
S11314C0FC01E95BFD4F85818093BA01203A20F449
S11314D02F5F20934A0202C010924A0281E0809357
S11314E0470283E08093BB0188C0109247021092A8
S11314F0BB0183C08091E80181117FC05091B70185
S11315008091BA01682F6295607F282F207F7091A7
S1131510B801FE01319640E0CF01552311F042306D
S1131520A9F03EEF340F323010F0208301C0608305
S1131530703819F430813160308340FD03C030814C
S1131540326030834F5F3196443039F700E010E069
S113155020E060E40E945A0382E0C4CF81E00E944C
S1131560720E8035910508F448C08FB7F894E7E40B
S1131570F2E027E833E01582168232962E173F07F1
S1131580D1F78FBF24E140E460E080E30E94E309E7
S113159025E040E460E080E30E94E30921E040E4C8
S11315A060E080E30E94E30920E040E460E080E240
S11315B00E94E30920E040E060E088E20E94E30941
S11315C020E040E060E088E00E94E30922E040E09F
S11315D060E081E00E94E30920E040E060E08CE00C
S11315E00E94E30920E040E060E086E00E94E30915
S11315F01092BB0182E00E94020E0F900F900F9098
S11316000F90DF91CF911F910F9108950F931F9326
S1131610CF93DF93EB0128E0829FC001112420E0E7
S113162040E060E080640E94E3098E01085F1F4F80
S1131630FE01849120E040E060E80E94E3092196E5
S1131640C017D107A9F720E040E060E080E8DF910F
S1131650CF911F910F910C94E309CF93C82F80FF72
S113166002C080E401C080E0C23008F08C5E860FC6
S113167021E040E060E080680E94E309C0934802F2
S1131680CF9108950F931F93CF93DF938C01F801AB
S1131690C1918F01CC2339F1CA3031F0CD3071F0D2
S11316A0C930D1F4D4E010C080914802843020F4D1
S11316B08F5F8093480202C01092480260E08091DC
S11316C048020E942D0BE3CF20E040E060E880E276
S11316D00E94E309D150C1F720E040E060E88C2F7C
S11316E00E94E309D4CFDF91CF911F910F91089508
S11316F00F931F93CF93DF938C01F801C491CC23F4
S113170049F1CA3031F0CD3071F0C930D1F4D4E0B0
S113171010C080914802843020F48F5F8093480287
S113172002C01092480260E0809148020E942D0B92
S11317300EC020E040E060E880E20E94E309D1505E
S1131740C1F720E040E060E88C2F0E94E3090F5FBE
S11317501F4FD3CFDF91CF911F910F91089520E0B8
S113176040E060E80C94E30922E040E060E081E0BE
S11317700E94E30910924802089581E08093C20117
S113178080E00C947B0E8091C201813009F49AC0F0
S113179020F0823009F4A3C0089587E00E94E50D8B
S11317A0882369F187E00E94F60DFC019081809105
S11317B0AD03923061F4823011F19093AD03109235
S11317C0AC030E942E1081E00E94D60D18C0823016
S11317D0B1F480918E0390918F03FC013896E491CB
S11317E0E13011F4E093AD031092AC03FC013696A2
S11317F0859194910E94221081E00C94D60D86E08C
S11318000E94E50D8823B9F086E00E94F60D209130
S1131810AD03223081F4FC018081E0918E03F091CC
S11318208F0318160CF03296859194910E94221021
S113183081E00E94D60D80919A0381115DC00E94BF
S1131840720E883E934008F457C080919C03909197
S11318509D03853823E0920718F41092BD0109C056
S11318609C01255833402436310528F481E08093C7
S1131870BD0182E012C09C01295E33402C3B324002
S113188020F41092BD0181E008C0855A96408C3244
S1131890914030F481E08093BD018093BE0104C087
S11318A01092BD011092BE018FEF9FEF9093C10182
S11318B08093C0016CEB71E088E00E94C50D80E06C
S11318C00C947B0E80E00E94720E85369105A0F088
S11318D080E00E94020E82E08093C201089583E0BA
S11318E00E94E50D882341F081E00E94020E1092CF
S11318F0C20181E08093AD0308951092C30108955D
S11319008091C301089581E08093D20183E00C9417
S11319107B0EFF920F931F93CF93DF931F92CDB74C
S1131920DEB7E091D2018E2F90E08B30910508F064
S113193010C1FC01E45CFF4F0C94B11083E00E94E1
S1131940720E449708F405C182E00FC08091E8014B
S11319508111FFC02FE330E042E061E08EED0E9490
S11319602303882309F4F5C083E08093D201F1C0F6
S11319708091E8018111EDC08091EA0181110EC0CE
S113198011E0109390030E949C0380FF04C082E046
S11319908093C401C5C01093C401C2C010929003C7
S11319A0BFC08091E8018111D4C082E089830FE334
S11319B010E022E041E06EEDCE0101960E945A0350
S11319C085E0D3CF8091E8018111C3C086E0F82E71
S11319D0F9820FE310E022E041E06EEDCE010196C2
S11319E00E945A038091C4018130A1F1823009F030
S11319F097C0F092D201ADC08091E8018111A9C0D5
S1131A000E940D0F8093C50184E30E940D0F809303
S1131A10C6018EE00E940D0F80688093C70181E0AB
S1131A200E940D0F8093C80182E00E940D0F8093E5
S1131A30C90183E10E940D0F8093CA0184E0809361
S1131A40CB0100E310E022E047E06EED85EC91E08D
S1131A500E945A0387E089CF8091E801811179C0FF
S1131A6088E1898301E110E022E041E06EEDCE01DE
S1131A7001960E945A0388E067C083E00E94720EB8
S1131A800C9708F466C01092C4011092D2015EC093
S1131A908091E80181115DC020E330E042E067E01D
S1131AA08EED0E942303882309F453C08AE05DCF9E
S1131AB08091E80181114DC005EC11E00E949C0366
S1131AC0F80181938F01F1E00C3C1F07B9F7809175
S1131AD0C5010E94040F809391038091C6010E9466
S1131AE0040F809392038091C7018F770E94040FA3
S1131AF0809393038091CB01809394038091C801D8
S1131B000E94040F809395038091C9010E94040FE1
S1131B10809396038091CA010E94040F80939703D7
S1131B201092D20116C080919003882391F0809185
S1131B30C401882311F084E018CF83E00E94720E60
S1131B40843F914030F089E08093D20183E00E9489
S1131B507B0E0F90DF91CF911F910F91FF9008950D
S1131B6080E090E0FC01EE0FFF1FE80FF91FEC543A
S1131B70FC4F108201968A309105A1F71092B103AF
S1131B801092B2031092B303089590E0FC01EE0F9B
S1131B90FF1F8E0F9F1FFC01EC54FC4F80818111AD
S1131BA004C081E0808372836183089590E0FC0126
S1131BB0EE0FFF1F8E0F9F1FFC01EC54FC4F808122
S1131BC0811102C081E08083089590E0FC01EE0F52
S1131BD0FF1F8E0F9F1FFC01EC54FC4F808182304D
S1131BE019F4108281E0089580E0089590E0FC01EA
S1131BF0EE0FFF1F8E0F9F1FFC01EC54FC4F8181E1
S1131C0092810895E82FF0E0EF54FC4F8081811118
S1131C1002C081E080830895E82FF0E0EF54FC4F88
S1131C20908181E0923009F080E008952FB7F89414
S1131C3080E090E032E0FC01EE0FFF1FDF01A80F0F
S1131C40B91FAC54BC4F4C91423009F41C92E80FBC
S1131C50F91FEC54FC4F4081413009F43083019664
S1131C608A30910541F780E090E032E0FC01EF54C6
S1131C70FC4F4081423009F410824081413009F424
S1131C80308301968330910589F72FBF089580E052
S1131C9090E0FC01EE0FFF1FED52FE4F1182108207
S1131CA001968A309105A9F70895FC014081AFB7E8
S1131CB0F8944423A9F020E030E050E0F901EE0F5D
S1131CC0FF1FED52FE4F60817181640F751F718398
S1131CD060832F5F3F4F2A30310581F7FC0110826A
S1131CE0AFBF0895E82FF0E0EE0FFF1FED52FE4F57
S1131CF0808191810895E82FF0E0EE0FFF1FED52EF
S1131D00FE4F118210820895CF93DF93DB01EAEE38
S1131D10F1E0EB016D5F7F4F349190E0831718F091
S1131D209F5F831BFBCF905D99933196C617D707AE
S1131D3099F713961C921397442369F08C9180337E
S1131D4051F480E28C9311969C911197903319F47D
S1131D5011968C931197CD0143E050E0BA01621BB8
S1131D6071099B01482F4A1B50E04217530714F492
S1131D700196F8CFDF91CF910895CF92DF92EF9241
S1131D80FF920F931F93CF93DF938C0120EE31E0EA
S1131D90DB016B0185E0C80ED11CEB01F901E59074
S1131DA0F49090E00E151F0520F09F5F0E191F0997
S1131DB0F9CF905D99932E5F3F4FCC15DD0571F7F8
S1131DC0FB011582CB01049620E23C91303331F0C3
S1131DD0CB0125E030E0241B310905C02D938A177F
S1131DE09B07B1F3F2CF482F461B50E0421753072D
S1131DF014F40196F8CFDF91CF911F910F91FF90CA
S1131E00EF90DF90CF900895982F92959F708F70E8
S1131E102AE0929F800D112408956AE00E94911097
S1131E2020E1829F900D1124892F08951F920F9213
S1131E300FB60F9211248F938091E7018F5F8093E7
S1131E40E7018F910F900FBE0F901F9018951F926E
S1131E500F920FB60F9211248F939F93EF93FF93DA
S1131E60EAEAF3E0908181E089278083FF91EF9192
S1131E709F918F910F900FBE0F901F9018951F92F6
S1131E800F920FB60F9211242F933F934F935F93AA
S1131E906F937F938F939F93AF93BF93EF93FF932E
S1131EA00E940504FF91EF91BF91AF919F918F9193
S1131EB07F916F915F914F913F912F910F900FBE42
S1131EC00F901F9018951F920F920FB60F92112426
S1131ED02F933F934F935F936F937F938F939F932E
S1131EE0AF93BF93EF93FF930E94E703FF91EF91AA
S1131EF0BF91AF919F918F917F916F915F914F911E
S1131F003F912F910F900FBE0F901F9018951F9225
S1131F100F920FB60F9211242F933F934F935F9319
S1131F206F937F938F939F93AF93BF93EF93FF939D
S1131F300E941D02FF91EF91BF91AF919F918F91EC
S1131F407F916F915F914F913F912F910F900FBEB1
S1131F500F901F90189594E09093640082E0809312
S1131F60B0009093B1009DE79093B3001092B2003B
S1131F70E0E7F0E090819260908314BC85BDEEE6CA
S1131F80F0E090819E7F908316BC1092C50093E38D
S1131F909093C400E1ECF0E098E0908396E0909395
S1131FA0C20090819062908352988093690081E08E
S1131FB08DBB3A9887B18C7F87B9229A2A98219A47
S1131FC02998209A2898559A5D9A08950E94AB0FF3
S1131FD00E94B00D0E94470E0E9417030E94BD0B81
S1131FE00E947D0C0E94DE090E94B3050E94830CAE
S1131FF00E9418090E94B1040E9462040E945705BD
S11320000E944B080E94AB04789487EE91E00E94F2
S1132010550E0E94C30B0E94800C0E940F0A0E945E
S11320203C060E94890C0E94BA040E942C090E945A
S113203069040E945C050E9450080E94AE040E943C
S1132040160EE3CF20E08B3A920739F090938F037A
S113205080938E0381E08093AF03089588EA92E031
S113206090938F0380938E0381E08093AF03089550
S1132070E0918E03F0918F0390E0EB3AF907F9F0C9
S113208018169CF490E0EB3AF90719F02591349175
S1132090F9018150B9F70BC090E0EB3AF90721F050
S11320A0329625913491F9018F5F8111F5CF80E04B
S11320B0EB3AF80721F0399685919491089583EBD2
S11320C092E00895E0918E03F0918F0320E0EB3AC3
S11320D0F20721F118169CF490E0EB3AF90719F095
S11320E025913491F9018150B9F70BC020E0EB3A06
S11320F0F20721F0329625913491F9018F5F811115
S1132100F5CF80E0EB3AF80749F036968591949143
S11321108B5A904019F085E893E0089583EB92E0A0
S11321200895991B79E004C0991F961708F0961B2F
S1132130881F7A95C9F780950895AA1BBB1B51E1A6
S113214007C0AA1FBB1FA617B70710F0A61BB70B23
S1132150881F991F5A95A9F780959095BC01CD01C8
S11321600895EE0FFF1F0590F491E02D0994F89463
S1052170FFCF9B
S113217214CC02C802C402C002BC02B802B402B641
S11321820000000000000000000000000000000049
S113219200000000000000000000000000000093A6
S11321A201860179016C015F015201450138012B5D
S11321B2011E01C300000000000000000000000036
S11321C20011010401F700EA00DD00D00000000064
S11321D200000000000000000000000000000000F9
S11321E200000000000000000000000000000000E9
S11321F200000000000000000000000000000000D9
S11122020011010401F700EA00DD00D0000025
S9030000FC
