S0150000434F325F53656D6170686F72652E7372656348
S11300000C94FD010C94600F0C941A020C941A02C7
S11300100C941A020C941A020C941A020C944F0FAA
S11300200C941A020C941A020C941A020C941A02DC
S11300300C941A020C941A020C941A020C941A02CC
S11300400C941A020C941A020C94780F0C949C0FC2
S11300500C941A020C941A020C941A020C941A02AC
S11300600C94C00F0C941A0238085C0666069306BA
S11300709C06C106D3060D07CC0DD70CDF0CF10C82
S11300800A0D1B0D350D650D760D810D910D2100A9
S1130090FF0186000000000079FF017900000000E4
S11300A00086FF01990000001388CB0000000000C7
S11300B000000000000020202026202020262020F0
S11300C02024002020202620022026200220240094
S11300D005020126FF022026042020240005020137
S11300E026FF022026040203240006020626FF201F
S11300F0FF26030203240005020126FF2020260414
S11301000203240005020626FF0207260402032434
S11301100005020626FF02FF260420032400050230
S113012006260402FF26040203240005020626FF15
S113013002FF2604020324000002062620050326EB
S1130140200420240005020126FF020626040203DF
S113015024000502012604020626040203240005E5
S11301602006260402FF262020032400000206267F
S113017020020626040203240000020626050203C8
S113018026040203240000FFFE2620FF202604028A
S113019003240005020626FF20FF26040203240090
S11301A0181C1E1F1F1E1C18181E1E1F1F1F1F1F7A
S11301B0030F0F1F1F1F1F1F1F0F0F03000000003F
S11301C01F1E1E18000000001F1F1F1F000000003C
S11301D0181E1E1F00000000030F0F1F0000000068
S11301E01027E80364000A000100640A01AB00F868
S11301F0011902AB0000E002ED0103021902AB0099
S113020000EF02F8010E021902AB00000103030221
S1130210AB001902A80200D002AB009D02AB000E95
S113022002000B03AB0050029D02AB00001603ABAF
S1130230003A025002AB000024032F024502500290
S1130240AB000031033A02AB005002920200D0022C
S1130250240287029D024502003E03AB006602872A
S113026002AB000044035B0271028702AB00005042
S11302700366027C028702AB00005B037102AB00E1
S11302808702920200D002500292029D027C020078
S113029066038702AB009D02A80200D0021902A8DF
S11302A002AB009202006C039D02AB00AB00AB00FA
S11302B001D4020053756E005361740046726900E4
S11302C05468750057656400547565004D6F6E0081
S11302D02A5570004D61696E2073637265656E0006
S11302E048756D6964697479204772617068005457
S11302F0656D7065726174757265204772617068AE
S113030000434F32204772617068004D6F6E69740C
S11303106F72696E67004C4344204261636B6C6981
S11303206768740042757A7A6572207365747570B3
S1130330004C6576656C7320736574757000416C50
S113034061726D0043616C6962726174696F6E0001
S1130350446174652073657475700054696D65201B
S1130360736574757000436C6F636B0053657474CC
S1130370696E6773004F4B004641494C0020002DC5
S1130380002E003A003E00202020DF4320202020C1
S1130390252020202020202070706D00202D3E205C
S11303A0434F32202E2E2E00202D3E204448542030
S11303B02E2E2E0D0A00202D3E20525443202E2E88
S11303C02E0D0A005065726970686572616C207048
S11303D0726573656E63653A0D0A0053573A2031AE
S11303E02E300048573A20312E300053454D4150AD
S11303F0484F524500320043300011241FBECFEF56
S1130400D8E0DEBFCDBF11E0A0E0B1E0E4EEF1E260
S113041002C005900D92AE39B107D9F723E0AEE9D9
S1130420B1E001C01D92A83DB207E1F70E941F1080
S11304300C94F0100C94000008958091B900887F0A
S1130440883209F45EC070F4803191F128F4882375
S1130450F1F0883031F108958831D1F1803209F416
S113046041C00895803409F4A9C038F4803309F4F4
S113047089C0883309F492C00895803509F4A1C075
S1130480883509F4BAC0883409F0D0C02BC084E0A0
S11304908093EE0185E98093BC001092E90181E02C
S11304A029C09091ED018091EF01911109C006C01E
S11304B09091ED018091EF01923011F4816001C0BF
S11304C08E7F8093EF018091EF018093BB0056C033
S11304D09091170291113EC09091F30191111EC0A9
S11304E085E988C081E08093EE0195E99093BC0092
S11304F01092E9018093EB01E0911402F09115024E
S113050094C08091ED018130F1F490911702911122
S113051021C09091F301992309F47CC08091F001EA
S1130520E82FF0E0E751FE4F23852093BB00843190
S113053020F48F5F8093F00102C01092F00191507B
S11305409093F3011BC0823009F070C090911702A0
S11305509923B1F080911602E82FF0E0E751FE4FA5
S113056027A52093BB00823020F48F5F809316026E
S113057002C01092160291509093170285E83AC077
S113058085EA38C083E08093EE0185E98093BC005E
S11305901092E90181E08093EB0143C082E08093F3
S11305A0EE011092F0011092160285EA8093BC00CD
S11305B01092E90181E08093EB0108958091F301A9
S11305C016C08091F0019091BB00E82FF0E0E75154
S11305D0FE4F978F8A3020F48F5F8093F00102C022
S11305E01092F0018091F30181508093F3018130E6
S11305F029F285EC8093BC0008958091BB00E091C2
S1130600F001F0E0E751FE4F878F8091F3018150B4
S11306108093F30185E98093BC001092E901109264
S1130620EB01E0911202F09113020994089588B14C
S1130630806388B987B18F7C87B985E08093B800DF
S11306401092B90008959091EA01911131C091E09E
S11306509093E9019093EA01442389F092E0909306
S1130660ED01423029F4309318022093190202C09C
S113067020931802109216024093170202C010929F
S1130680ED018093EF018CE192E09093130280934B
S1130690120290931502809314021092F0011092AA
S11306A0F2016093F30185EA8093BC0081E0089530
S11306B080E008950F931F93DC011092F1011092D2
S11306C0F301942F992381F0E091F101E43150F486
S11306D081E08E0F8093F1018C91F0E0E751FE4FA1
S11306E0838711969150EECF81E08093E901809346
S11306F0ED016093EF01223029F410931802009366
S1130700190202C0009318021092160220931702D5
S11307108CE192E09093130280931202909315025D
S1130720809314021092F0014093F30185EA8093C0
S1130730BC001F910F9108951092EA01E091F2011B
S1130740EA3048F481E08E0F8093F201F0E0E75143
S1130750FE4F878D089580E008952091C1002F7D7C
S11307602093C10070911E022091C1002062209349
S1130770C100462F50E024E130E0271B3109241743
S1130780350724F1FC01615008F1A0911D0291E0AC
S11307909A0F90931D028491B0E0A65EBD4F15960A
S11307A08C93943110F010921D028091C1008F7DC2
S11307B08093C10080911E028F5F80931E028091FE
S11307C0C10080628093C1003196DDCF089580918D
S11307D01E028823A1F0E0911C0291E09E0F9093E9
S11307E01C02F0E0E65EFD4F25812093C6009431A3
S11307F010F010921C02815080931E020895809183
S1130800C1008F7D8093C10008953091C6009091FE
S11308103902911102C03D3001F1809138028B30D0
S113082008F5E091370221E02E0F20933702F0E023
S1130830E65EFD4F30A32A3011F4109237028F5F29
S1130840809338029923E9F098131BC08091C1006A
S11308508F768093C10010923702E0914402F091A8
S113086045020EC081E080931A0280931B0280919E
S1130870C1008F768093C100E0914602F091470257
S113088009940895809137028B3010F0109237024A
S1130890E091370281E08E0F80933702F0E0E65E4C
S11308A0FD4F80A10895EAE1F2E0158E168E878F40
S11308B073A762A755A744A7E1ECF0E080818069A3
S11308C0808308951092A101EEE9F1E01182108273
S11308D00895CF93C091A101C130D1F018F0C23076
S11308E091F137C0329906C010929E011092A00176
S11308F081E020C080919E01882359F180939F015B
S11309006FE971E087E00E94FE0D10929E0121C004
S113091087E00E94AB0E0A97E0F032990EC0C093B4
S11309209E018091A00191E0980F9093A0018C33D7
S113093030F082E08093A10102C01092A10187E00F
S1130940CF910C94B40E329B04C0C0939E011092BC
S1130950A101CF9108951092A20108958091A2015E
S1130960811108C08AE00E941E0E882319F081E0DC
S11309708093A2010895EFE9F3E0108211821092AE
S1130980A80184E00C94B40E8091A8018130B1F1E7
S113099018F1833009F094C08091A3018093A103DE
S11309A08091A4018093A2038091A5018093A30365
S11309B08091A6018093A4038091A7018093A5034D
S11309C01092A6038091A2039091A30397FF62C0A3
S11309D021E02093A6035EC080919F03811170C023
S11309E084E00E94AB0E893E934008F469C0569A95
S11309F05E9884E00E94B40E81E049C084E00E94C5
S1130A00AB0E069708F45CC02FB7F8945E9A80E5A5
S1130A108A95F1F7569816BC4E9907C086B5853667
S1130A20D8F381E080939F031EC016BC4E9B04C084
S1130A3086B58536D8F313C0E8EAF1E01AC016BCCF
S1130A404E991AC0880F36B5333308F0816091503F
S1130A50B9F016BC4E99F3CF36B53536D8F381E0EC
S1130A6080939F0382E08093A0031092A8012FBF7C
S1130A70089598E080E0EDCF36B5353608F3EFCF32
S1130A80829381E0E33AF807A1F72FBF83E08093D4
S1130A90A80108952AE030E0B9010E94D6106093BD
S1130AA0A7038093A8038091A4039091A503B9019F
S1130AB00E94D6106093A9038093AA031092A80100
S1130AC008951092AC0186E00C94B40E8091AC01B0
S1130AD0813089F020F0823009F441C0089586E025
S1130AE00E94AB0E892B09F447C081E08093AC01CE
S1130AF086E00C94B40E86B183702091A901909184
S1130B00AA01213099F01CF4222331F01DC02230B7
S1130B1091F02330A9F018C0823011F4915003C031
S1130B20813091F49F5F9093AA010EC08823B1F3A2
S1130B308330C1F309C0833089F3882399F304C057
S1130B40813061F3823071F38093A9018091AA010D
S1130B508D5F873078F082E08093AC0108958091B6
S1130B60AA018093AB011092AA016BEA71E086E0BE
S1130B700E94FE0D1092AC01089581E08093B101B2
S1130B8082E00C94B40E68ED71E080E00E94100BDA
S1130B9060ED71E081E00E94100B68EC71E082E08E
S1130BA00E94100B60EC71E083E00E94100B68EB74
S1130BB071E084E00E94100B60EB71E085E00E941C
S1130BC0100B68EA71E086E00E94100B60EA71E0A5
S1130BD087E00C94100BFF920F931F93CF93DF9336
S1130BE0F62EC42F8052873420F5E82FF0E0EE0F64
S1130BF0FF1FE15FFE4F0081118101151105C9F04E
S1130C00642F8F2D0E94370BDC2FF80184918432DE
S1130C1079F0863239F4F3946C2F8F2D0E94370BC0
S1130C20DC2F03C0DF5F0E94B90B0F5F1F4FEDCFB6
S1130C30CD2F8C2FDF91CF911F910F91FF900895AD
S1130C401F93CF93DF93162FEC018991882329F00A
S1130C50612F0E94EB05482FF8CF842FDF91CF91AD
S1130C601F9108951F93CF93DF93EC01162FFE017C
S1130C708491882331F0612F0E94EB05482F21963F
S1130C80F6CF842FDF91CF911F9108950F931F9377
S1130C90CF93DF9300D000D000D0CDB7DEB7E09182
S1130CA0B1018E2F90E08830910508F0F3C1FC016A
S1130CB0EC5CFF4F0C94EA1082E00E94450E8823FE
S1130CC009F4E8C10E94C30582E02AC043E060E061
S1130CD087EF93E00E94320669E080E00E94370BC0
S1130CE085EF93E00E94820B62E083E00E94370B61
S1130CF08BEE93E00E94820B6DE080E00E94370B44
S1130D0083EE93E00E94820B6DE081E00E94370B3A
S1130D108BED93E00E94820B82E00E94B40E83E08C
S1130D208093B101B7C182E00E94AB0E813D974030
S1130D3008F4B0C184E0F4CF82E00E94AB0E49977E
S1130D4008F4A8C1809100019FEF980F90930001CF
S1130D50882369F010E060910001812F0E94370B15
S1130D6080E20E94B90B1F5F1430A9F78AC121E009
S1130D7040E060E080E10E94ED090E94BE0B85E046
S1130D80CFCF84EC93E00E94820B86EB93E00E9429
S1130D90820B88EA93E00E94820B8CE993E00E9424
S1130DA0820B86E06CC18091B001823019F408E0B6
S1130DB012E502C004EF11E082E00E94AB0E0817B6
S1130DC0190708F067C18091B0018F5F8093B0016B
S1130DD0823049F0833051F0813069F4909191036D
S1130DE0992399F00CC090919F0302C090919B03AA
S1130DF0992329F00AC083E00E940F0E36C162E1F4
S1130E000E94370B85E793E005C060E10E94370B31
S1130E1088E793E00E94820B34C18091AE039091E5
S1130E20AF038093AF03813021F0823009F4BAC05C
S1130E3017C1913091F00E94BE0B61E180E00E94E5
S1130E40370B81E893E00E94820B60E083E00E940C
S1130E50370B87E893E00E94820B6FE080E00E94EA
S1130E60370B22E040E0BE016F5F7F4F8091960315
S1130E700E94BD0E0E944C0B62E180E00E94370B81
S1130E8022E040E0BE016F5F7F4F809197030E9494
S1130E90BD0E0E944C0B60E181E00E94370BE09193
S1130EA09503F0E0EE0FFF1FEF5FFE4F808191810D
S1130EB00E94820B60E083E00E94370B8091A603BE
S1130EC0882319F08FE793E002C08DE793E00E9436
S1130ED0820B22E041E0BE016F5F7F4F8091A70348
S1130EE00E94BD0E0E944C0B67E083E00E94370B0A
S1130EF022E041E0BE016F5F7F4F8091A9030E9411
S1130F00BD0E0E944C0B6DE083E00E94370B44E061
S1130F10BE016F5F7F4F80919D0390919E030E945D
S1130F20F60E0E944C0B6CE083E00E94370B80911C
S1130F309B03882319F08EE890E002C08DE793E0CC
S1130F400E94820B22E041E0BE016F5F7F4F8091DF
S1130F5094030E94BD0E40E060E00E942006182F1A
S1130F6022E040E0BE016F5F7F4F809193030E94B7
S1130F70BD0E41E0410F60E00E94200666E081E082
S1130F800E94370B9091AF0181E089278093AF01D4
S1130F90882319F083E893E002C08DE793E00E9470
S1130FA0820B60C08091B203882309F45BC0109265
S1130FB0B2030E94BE0B8091AD019091AE01FC0181
S1130FC032962591349140918F03509190034217AA
S1130FD0530739F42091AD03222319F021502093B3
S1130FE0AD03FC01859194914817590739F4809118
S1130FF0AD03833018F48F5F8093AD0310E060E09D
S1131000812F0E94370B8091AD03811303C085E8C3
S113101093E002C08DE793E00E94820B8091AD03C0
S1131020012F081B61E0812F0E94370B802F0E9443
S113103071100E94820B62E1812F0E94370B802F76
S11310400E949B100E94820B1F5F1430C1F6809196
S11310508F03909190039093AE018093AD0102C0F1
S11310600E94BE0B82E00E94B40E1092B10112C025
S113107082E00E94AB0E843F914038F087E0809379
S1131080B10182E00E94B40E05C081E00E941E0EF0
S11310908111F4CF26960FB6F894DEBF0FBECDBFF4
S11310A0DF91CF911F910F9108951092B501109285
S11310B0B4010895CF93C091B501C13029F0A8F1CE
S11310C0C23009F453C0B6C081E00E94450E8823A3
S11310D031F01092B5012A9829982898ABC088E07D
S11310E00E94AB0E843F914008F4A4C08091B401E7
S11310F0833020F48F5F8093B40102C0C093B401A5
S11311008091B401823031F0833039F0813049F478
S11311102A9A08C02A98299A06C02A982998289AAF
S11311200CC02A982998289808C080E00E94450E8F
S1131130882329F081E08093B50188E078C088E0B5
S11311400E941E0E882309F475C088E00E942F0EA9
S11311509093B3018093B20121E0FC01218382E0EA
S11311608093B50188E00E94B40E60C0E091B201A2
S1131170F091B30185819681019631F489E00E9452
S11311801E0E882399F00CC088E00E94AB0EE091FB
S1131190B201F091B301258136818217930770F370
S11311A02A98299828981092B50144C0E091B20178
S11311B0F091B3018181882319F18381813051F049
S11311C030F0823051F42A982998289A06C02A9A35
S11311D0299802C02A98299A2898E091B201F0919E
S11311E0B3018281882331F189E00E94AB0E843FF0
S11311F0914000F1E091B201F091B301118216C067
S11312002A9829982898E091B201F091B30182813B
S1131210882381F089E00E94AB0E843F914050F016
S1131220E091B201F091B30181E0818389E0CF9133
S11312300C94B40ECF91089584E00C940F0E85E0C5
S11312400C940F0EEAE9F3E01082118281E080939E
S1131250B6010895FC01319691E080E0961720F4E0
S11312602191820F9F5FFACF81950895CF92DF92EB
S1131270EF92FF920F931F93CF93DF93CDB7DEB717
S113128029970FB6F894DEBF0FBECDBF8091B6018B
S1131290813081F008F1833009F445C0843009F0CD
S11312A088C08E010F5F1F4F6E0189E0C80ED11CEC
S11312B078015AC08091C1008F768093C10069E0A3
S11312C082EA90E00E94AD0369E089E990E00E941F
S11312D0AD031092B60116C085E00E94AB0E8132B8
S11312E09E4408F466C069E080E990E00E94AD0382
S11312F04FE159E06CE179E089E00E94530483E016
S11313008093B60185E029960FB6F894DEBF0FBE30
S1131310CDBFDF91CF911F910F91FF90EF90DF90A0
S1131320CF900C94B40E84E00E941E0E882331F0FA
S113133010929B0384E08093B6013BC085E00E9439
S11313401E0E882341F081E080939B0382E080930A
S11313509C031092B60185E00E94AB0EC39748F13E
S113136081E080939B0315C00E944204F80181939D
S11313708F01EC15FD05C1F70E944204182F68E0A7
S1131380C7010E942A09181739F081E080939B0352
S113139084E080939C030BC08B8190E0982F882776
S11313A02C81820F911D90939E0380939D03109234
S11313B0B60129960FB6F894DEBF0FBECDBFDF91FC
S11313C0CF911F910F91FF90EF90DF90CF900895F0
S11313D081E08093BB010C94B40E90914C02903A3E
S11313E038F55FB7F89490914A0230914C02E92F96
S11313F0F0E0DF01AA0FBB1FA85BBD4F15968C93CD
S1131400EE0FFF1FE25BFD4F462B2F73422B4083F1
S113141081E0830F903A38F480934C029F5F90935D
S11314204A025FBF089510924A0280934C02F9CF9A
S113143008950F931F93CF93DF9300D000D0CDB7BF
S1131440DEB78091BB01813009F492C030F0823064
S113145061F0833009F458C0DAC080914C028823CB
S113146009F4D5C01092B90181C08091E9018823A3
S113147021F081E00E94B40ECAC08091B9018111AB
S113148005C080914C0281110BC039C081E00E94DB
S1131490AB0E2091B90130E02817390790F3B7C09B
S11314A0815080934C0220914B02822F90E0FC01EA
S11314B0EE0FFF1FE25BFD4F3081432F40784093D6
S11314C0B801432F40744093B7013F733093B9017F
S11314D0880F991FFC01E85BFD4F85818093BA0159
S11314E0203A20F42F5F20934B0202C010924B024B
S11314F081E08093480283E08093BB0188C010920E
S113150048021092BB0183C08091E90181117FC020
S11315105091B7018091BA01682F6295607F282F9E
S1131520207F7091B801FE01319640E0CF01552330
S113153011F04230A9F03EEF340F323010F0208326
S113154001C06083703819F430813160308340FD0C
S113155003C03081326030834F5F3196443039F7B5
S113156000E010E020E060E40E945A0382E0C4CF6F
S113157081E00E94AB0E8035910508F448C08FB716
S1131580F894E8E4F2E028E833E015821682329613
S11315902E173F07D1F78FBF24E140E460E080E3DA
S11315A00E94ED0925E040E460E080E30E94ED093B
S11315B021E040E460E080E30E94ED0920E040E4A3
S11315C060E080E20E94ED0920E040E060E088E213
S11315D00E94ED0920E040E060E088E00E94ED090F
S11315E022E040E060E081E00E94ED0920E040E07C
S11315F060E08CE00E94ED0920E040E060E086E0DD
S11316000E94ED091092BB0182E00E943B0E0F90F4
S11316100F900F900F90DF91CF911F910F9108952C
S11316200F931F93CF93DF93EB0128E0829FC001B8
S1131630112420E040E060E080640E94ED098E0106
S1131640085F1F4FFE01849120E040E060E80E94A3
S1131650ED092196C017D107A9F720E040E060E02A
S113166080E8DF91CF911F910F910C94ED09CF93F6
S1131670C82F80FF02C080E401C080E0C23008F0BF
S11316808C5E860F21E040E060E080680E94ED09F6
S1131690C0934902CF9108950F931F93CF93DF9383
S11316A08C01F801C1918F01CC2339F1CA3031F09A
S11316B0CD3071F0C930D1F4D4E010C0809149022A
S11316C0843020F48F5F8093490202C01092490253
S11316D060E0809149020E94370BE3CF20E040E0B4
S11316E060E880E20E94ED09D150C1F720E040E0BB
S11316F060E88C2F0E94ED09D4CFDF91CF911F9128
S11317000F9108950F931F93CF93DF938C01F801EA
S1131710C491CC2349F1CA3031F0CD3071F0C930D5
S1131720D1F4D4E010C080914902843020F48F5F5A
S11317308093490202C01092490260E080914902FC
S11317400E94370B0EC020E040E060E880E20E9477
S1131750ED09D150C1F720E040E060E88C2F0E94F1
S1131760ED090F5F1F4FD3CFDF91CF911F910F91E1
S1131770089520E040E060E80C94ED0922E040E0A8
S113178060E081E00E94ED09109249020895EBEABD
S1131790F3E01682158281E08093C30180E00C940B
S11317A0B40E2091C301213009F49DC038F02230D9
S11317B009F4A6C0233009F4B1C0089587E00E945B
S11317C01E0E882369F187E00E942F0EFC01908190
S11317D08091AE03923061F4823011F19093AE03A4
S11317E01092AD030E94671081E00E940F0E18C092
S11317F08230B1F480918F0390919003FC0138966C
S1131800E491E13011F4E093AE031092AD03FC01D6
S11318103696859194910E945B1081E00C940F0E92
S113182086E00E941E0E8823B9F086E00E942F0EE7
S11318302091AE03223081F4FC018081E0918F037A
S1131840F091900318160CF03296859194910E94B1
S11318505B1081E00E940F0E80919B03811109C0EF
S11318600E94AB0E883E934020F083E08093C30136
S113187037C08091B0039091B103891709F475C002
S11318808093B10391E09093BD012FEF3FEF30932C
S1131890C2012093C1018330B9F038F4813071F072
S11318A08230C9F49093BE010CC0843081F085303D
S11318B091F41092BE011092BF010DC01092BE01AE
S11318C082E08093BF0107C01092BE0102C09093D2
S11318D0BE019093BF016CEB71E088E00E94FE0DA5
S11318E080E00C94B40E80E00E94AB0E8536910526
S11318F0E0F180E00E943B0E82E08093C3010895F2
S113190083E00E941E0E882381F181E00E943B0E39
S11319101092C30181E08093AE03089580919D03EA
S113192090919E03853833E0930710F481E019C049
S1131930AC01455853404336510510F482E011C0C0
S1131940AC01485E53404C3B524018F42093B00322
S11319500AC0845A96408C32914010F484E001C04D
S113196085E08093B0031092C30108951092C401DE
S113197008958091C401089581E08093D30183E0A8
S11319800C94B40EFF920F931F93CF93DF931F9287
S1131990CDB7DEB7E091D3018E2F90E08B30910567
S11319A008F010C1FC01E45CFF4F0C94EA1083E0E2
S11319B00E94AB0E449708F405C182E00FC08091E9
S11319C0E9018111FFC02FE330E042E061E08EEDD8
S11319D00E942303882309F4F5C083E08093D30194
S11319E0F1C08091E9018111EDC08091EB01811179
S11319F00EC011E0109391030E949C0380FF04C069
S1131A0082E08093C501C5C01093C501C2C0109285
S1131A109103BFC08091E9018111D4C082E0898320
S1131A200FE310E022E041E06EEDCE0101960E944A
S1131A305A0385E0D3CF8091E9018111C3C086E0C8
S1131A40F82EF9820FE310E022E041E06EEDCE01C2
S1131A5001960E945A038091C5018130A1F1823020
S1131A6009F097C0F092D301ADC08091E9018111D2
S1131A70A9C00E94460F8093C60184E30E94460FCA
S1131A808093C7018EE00E94460F80688093C8014E
S1131A9081E00E94460F8093C90182E00E94460FB4
S1131AA08093CA0183E10E94460F8093CB0184E0B6
S1131AB08093CC0100E310E022E047E06EED86EC79
S1131AC091E00E945A0387E089CF8091E901811156
S1131AD079C088E1898301E110E022E041E06EED04
S1131AE0CE0101960E945A0388E067C083E00E94F9
S1131AF0AB0E0C9708F466C01092C5011092D30186
S1131B005EC08091E90181115DC020E330E042E0D4
S1131B1067E08EED0E942303882309F453C08AE012
S1131B205DCF8091E90181114DC006EC11E00E9466
S1131B309C03F80181938F01F1E00D3C1F07B9F775
S1131B408091C6010E943D0F809392038091C7014A
S1131B500E943D0F809393038091C8018F770E9468
S1131B603D0F809394038091CC01809395038091E1
S1131B70C9010E943D0F809396038091CA010E947F
S1131B803D0F809397038091CB010E943D0F80937A
S1131B9098031092D30116C080919103882391F089
S1131BA08091C501882311F084E018CF83E00E945E
S1131BB0AB0E843F914030F089E08093D30183E001
S1131BC00E94B40E0F90DF91CF911F910F91FF905F
S1131BD0089580E090E0FC01EE0FFF1FE80FF91F6D
S1131BE0E954FC4F108201968B309105A1F71092B5
S1131BF0B4031092B5031092B603089590E0FC016B
S1131C00EE0FFF1F8E0F9F1FFC01E954FC4F8081D4
S1131C10811104C081E0808372836183089590E020
S1131C20FC01EE0FFF1F8E0F9F1FFC01E954FC4FB8
S1131C308081811102C081E08083089590E0FC01DD
S1131C40EE0FFF1F8E0F9F1FFC01E954FC4F808194
S1131C50823019F4108281E0089580E0089590E0C4
S1131C60FC01EE0FFF1F8E0F9F1FFC01E954FC4F78
S1131C70818192810895E82FF0E0EC54FC4F80813B
S1131C80811102C081E080830895E82FF0E0EC54D4
S1131C90FC4F908181E0923009F080E008952FB7E5
S1131CA0F89480E090E032E0FC01EE0FFF1FDF01CA
S1131CB0A80FB91FA954BC4F4C91423009F41C928F
S1131CC0E80FF91FE954FC4F4081413009F4308397
S1131CD001968B30910541F780E090E032E0FC0101
S1131CE0EC54FC4F4081423009F410824081413071
S1131CF009F4308301968330910589F72FBF089545
S1131D0080E090E0FC01EE0FFF1FEC52FE4F1182C9
S1131D10108201968A309105A9F70895FC0140814B
S1131D20AFB7F8944423A9F020E030E050E0F90183
S1131D30EE0FFF1FEC52FE4F60817181640F751F1F
S1131D40718360832F5F3F4F2A30310581F7FC0197
S1131D501082AFBF0895E82FF0E0EE0FFF1FEC52A2
S1131D60FE4F808191810895E82FF0E0EE0FFF1F70
S1131D70EC52FE4F118210820895CF93DF93DB0162
S1131D80EAEEF1E0EB016D5F7F4F349190E0831751
S1131D9018F09F5F831BFBCF905D99933196C61714
S1131DA0D70799F713961C921397442369F08C91E3
S1131DB0803351F480E28C9311969C911197903367
S1131DC019F411968C931197CD0143E050E0BA01B8
S1131DD0621B71099B01482F4A1B50E042175307AD
S1131DE014F40196F8CFDF91CF910895CF92DF924A
S1131DF0EF92FF920F931F93CF93DF938C0120EE0A
S1131E0031E0DB016B0185E0C80ED11CEB01F90167
S1131E10E590F49090E00E151F0520F09F5F0E19D9
S1131E201F09F9CF905D99932E5F3F4FCC15DD05C7
S1131E3071F7FB011582CB01049620E23C9130330B
S1131E4031F0CB0125E030E0241B310905C02D938E
S1131E508A179B07B1F3F2CF482F461B50E0421775
S1131E60530714F40196F8CFDF91CF911F910F918E
S1131E70FF90EF90DF90CF900895982F92959F70E8
S1131E808F702AE0929F800D112408956AE00E94C9
S1131E90CA1020E1829F900D1124892F08951F926A
S1131EA00F920FB60F9211248F938091E8018F5FE8
S1131EB08093E8018F910F900FBE0F901F9018959B
S1131EC01F920F920FB60F9211248F939F93EF934B
S1131ED0FF93EBEAF3E0908181E089278083FF910F
S1131EE0EF919F918F910F900FBE0F901F901895B7
S1131EF01F920F920FB60F9211242F933F934F937B
S1131F005F936F937F938F939F93AF93BF93EF935D
S1131F10FF930E940504FF91EF91BF91AF919F91B0
S1131F208F917F916F915F914F913F912F910F907E
S1131F300FBE0F901F9018951F920F920FB60F921D
S1131F4011242F933F934F935F936F937F938F93BA
S1131F509F93AF93BF93EF93FF930E94E703FF9187
S1131F60EF91BF91AF919F918F917F916F915F910D
S1131F704F913F912F910F900FBE0F901F90189586
S1131F801F920F920FB60F9211242F933F934F93EA
S1131F905F936F937F938F939F93AF93BF93EF93CD
S1131FA0FF930E941D02FF91EF91BF91AF919F910A
S1131FB08F917F916F915F914F913F912F910F90EE
S1131FC00FBE0F901F90189594E09093640082E0E8
S1131FD08093B0009093B1009DE79093B30010926A
S1131FE0B200E0E7F0E090819260908314BC85BD7C
S1131FF0EEE6F0E090819E7F908316BC1092C500BF
S113200093E39093C400E1ECF0E098E0908396E0D1
S11320109093C2009081906290835298809369005B
S113202081E08DBB3A9887B18C7F87B9229A2A9830
S1132030219A2998209A2898559A5D9A08950E9481
S1132040E40F0E94E90D0E94800E0E9417030E9473
S1132050C70B0E94B60C0E94E8090E94BD050E94AD
S1132060BC0C0E9422090E94BB040E9462040E94CC
S113207061050E9455080E94AB04789488EE91E0B3
S11320800E948E0E0E94D10B0E94B90C0E94190A64
S11320900E9446060E94C20C0E94C4040E94360993
S11320A00E9469040E9466050E945A080E94AE04B8
S11320B00E944F0EE3CF20E08B3A920739F09093C1
S11320C0900380938F0381E08093B203089588EA9C
S11320D092E09093900380938F0381E08093B20306
S11320E00895E0918F03F091900390E0EB3AF907A3
S11320F0F9F018169CF490E0EB3AF90719F02591E1
S11321003491F9018150B9F70BC090E0EB3AF9072B
S113211021F0329625913491F9018F5F8111F5CF29
S113212080E0EB3AF80721F039968591949108956F
S113213083EB92E00895E0918F03F091900320E007
S1132140EB3AF20721F118169CF490E0EB3AF90708
S113215019F025913491F9018150B9F70BC020E0B1
S1132160EB3AF20721F0329625913491F9018F5F11
S11321708111F5CF80E0EB3AF80749F03696859166
S113218094918B5A904019F085E893E0089583EB7D
S113219092E00895991B79E004C0991F961708F0FE
S11321A0961B881F7A95C9F780950895AA1BBB1BB7
S11321B051E107C0AA1FBB1FA617B70710F0A61B43
S11321C0B70B881F991F5A95A9F780959095BC0164
S11321D0CD010895EE0FFF1F0590F491E02D0994B1
S10721E0F894FFCF9D
S11321E414CC02C802C402C002BC02B802B402B6CF
S11321F400000000000000000000000000000000D7
S11322040000000000000000000000000000009333
S113221401860179016C015F015201450138012BEA
S1132224011E01C3000000000000000000000000C3
S11322340011010401F700EA00DD00D000000000F1
S11322440000000000000000000000000000000086
S11322540000000000000000000000000000000076
S11322640000000000000000000000000000000066
S11122740011010401F700EA00DD00D00000B3
S9030000FC
