:100000000C948F020C94A8180C94AC020C94AC02C3
:100010000C94AC020C94AC020C94AC020C94AC02A8
:100020000C94AC020C94AC020C94AC020C94971897
:100030000C94AC020C94AC020C94AC020C94AC0288
:100040000C94AC020C94AC020C94C0180C94E41800
:100050000C94AC020C94AC020C94AC020C94AC0268
:100060000C9408190C94AC02A40E4C0A560A7B0A94
:10007000840AA90AB10AEA0AFC0AA00BB70BD00B42
:10008000E40BFA0B0E0C220CA00C180D820D030EC3
:10009000F70D810E860E880E8A0E8C0E950E780E48
:1000A0007B0E860E880E8A0E8C0E950E56135813F4
:1000B000601362136413661368136C13A713C213DF
:1000C000D113D113CF16781580159215AB15BC1529
:1000D000E215121623162E1643168416A6160100D4
:1000E0002100200001020304050607FF018600002D
:1000F00000000079FF0179000000000086FF0199EF
:100100000000001388CB0101173B173B00000000E3
:1001100000000A0A173B173B000000000000173BD5
:100120003B000000061F0C630001010000000000FE
:100130000000000000000000000002050A141E3745
:100140005A73C8FF2020202620202026202020248B
:100150000020202026200220262002202400050244
:100160000126FF022026042020240005020126FF8C
:10017000022026040203240006020626FF20FF2692
:10018000030203240005020126FF202026040203A7
:10019000240005020626FF020726040203240005A8
:1001A000020626FF02FF260420032400050206267D
:1001B0000402FF26040203240005020626FF02FFB4
:1001C000260402032400000206262005032620043C
:1001D00020240005020126FF020626040203240053
:1001E0000502012604020626040203240005200657
:1001F000260402FF262020032400000206262002F7
:100200000626040203240000020626050203260433
:100210000203240000FFFE2620FF20260402032400
:100220000005020626FF20FF260402032400181CF6
:100230001E1F1F1E1C18181E1E1F1F1F1F1F030F0F
:100240000F1F1F1F1F1F1F0F0F03000000001F1E87
:100250001E18000000001F1F1F1F00000000181EB6
:100260001E1F00000000030F0F1F000000001027DA
:10027000E80364000A000100640A0102002C018AFC
:10028000022C01CB0200000505037D02BE022C01F9
:10029000CB0200000615032C01A402BE02B102002D
:1002A000000222039702B102BE02B1020000032D38
:1002B00003A4022C01BE02CB02010000F5028A0257
:1002C000CB022C01B1020001003803BE022C012C2C
:1002D000012C01010001F9020053756E0053617495
:1002E000004672690054687500576564005475656E
:1002F000004D6F6E002A5570004D61696E2073636A
:100300007265656E004261636B6C69676874207327
:10031000657475700042757A7A65722073657475BC
:100320007000446174652073657475700054696D64
:100330006520736574757000436C6F636B20736523
:10034000747570004F666600204F6E004E6F005946
:100350006573004F4B004641494C005F5F002F0022
:1003600020002D003A003E0044656661756C740DF6
:100370000A42792074696D650D0A52616E676520C5
:1003800020202020203A20202D20203A0D0A5361E1
:1003900076653F0044656661756C740D0A4279208C
:1003A00074696D650D0A52616E67652020202020FA
:1003B000203A20202D20203A0D0A536176653F0017
:1003C00053657475702074696D653A0D0A0D0A0DD8
:1003D0000A536176653F00536574757020646174DB
:1003E000653A0D0A0D0A0D0A536176653F005465A2
:1003F0006D70206461696C792C20DF430054656D59
:100400007020686F75726C792C20DF430048756D21
:100410006964697479206461696C792C20250048CD
:10042000756D696469747920686F75726C792C20B8
:100430002500434F32206461696C792C2070706D07
:1004400000434F3220686F75726C792C2070706D8C
:10045000002E0D0A0D0A0D0A202020DF4320202047
:1004600020252020202020202070706D00506572F3
:100470006970686572616C20636865636B3A0D0A28
:10048000202D3E20525443202E2E2E0D0A202D3E8C
:1004900020444854202E2E2E0D0A202D3E20434F5E
:1004A00032202E2E2E0053573A20312E300048573E
:1004B0003A20312E310053454D4150484F524500AE
:1004C0003200433000000207021E00000000040654
:1004D0000706040000001010121F0200001F1F1F5B
:1004E0001F1F1F1F1F001F1F1F1F1F1F1F00001F79
:1004F0001F1F1F1F1F0000001F1F1F1F1F000000C6
:10050000001F1F1F1F00000000001F1F1F00000012
:100510000000001F1F000000000000001F00112449
:100520001FBECFEFD8E0DEBFCDBF11E0A0E0B1E04D
:10053000E0E3F5E302C005900D92AE39B107D9F7BB
:1005400025E0AEE9B1E001C01D92AA34B207E1F79F
:100550000E947A190C94961A0C94000008958091C8
:10056000B900887F883209F45EC070F4803191F15F
:1005700028F48823F1F0883031F108958831D1F1E1
:10058000803209F441C00895803409F4A9C038F4D8
:10059000803309F489C0883309F492C00895803506
:1005A00009F4A1C0883509F4BAC0883409F0D0C074
:1005B0002BC084E08093120285E98093BC001092E6
:1005C0000D0281E029C090911102809113029111D6
:1005D00009C006C09091110280911302923011F46B
:1005E000816001C08E7F80931302809113028093FB
:1005F000BB0056C090913B0291113EC090911702F2
:1006000091111EC085E988C081E08093120295E9AE
:100610009093BC0010920D0280930F02E09138027B
:10062000F091390294C0809111028130F1F49091DF
:100630003B02911121C090911702992309F47CC0CB
:1006400080911402E82FF0E0E35FFD4F23852093B3
:10065000BB00843120F48F5F8093140202C010929B
:1006600014029150909317021BC0823009F070C0A1
:1006700090913B029923B1F080913A02E82FF0E08B
:10068000E35FFD4F27A52093BB00823020F48F5FEE
:1006900080933A0202C010923A02915090933B022A
:1006A00085E83AC085EA38C083E08093120285E984
:1006B0008093BC0010920D0281E080930F0243C032
:1006C00082E0809312021092140210923A0285EA9C
:1006D0008093BC0010920D0281E080930F02089578
:1006E0008091170216C0809114029091BB00E82FF0
:1006F000F0E0E35FFD4F978F8A3020F48F5F8093A7
:10070000140202C01092140280911702815080934B
:100710001702813029F285EC8093BC000895809106
:10072000BB00E0911402F0E0E35FFD4F878F809102
:10073000170281508093170285E98093BC001092C4
:100740000D0210920F02E0913602F09137020994E7
:10075000089588B1806388B987B18F7C87B988E0B4
:100760008093B8001092B900089590910E029111F3
:1007700031C091E090930D0290930E02442389F0D2
:1007800092E090931102423029F430933C0220937E
:100790003D0202C020933C0210923A0240933B0279
:1007A00002C010921102809313028EEA92E090939D
:1007B0003702809336029093390280933802109268
:1007C0001402109216026093170285EA8093BC000F
:1007D00081E0089580E008950F931F93DC0110924B
:1007E000150210921702942F992381F0E0911502BF
:1007F000E43150F481E08E0F809315028C91F0E08B
:10080000E35FFD4F838711969150EECF81E0809397
:100810000D028093110260931302223029F4109389
:100820003C0200933D0202C000933C0210923A0247
:1008300020933B028EEA92E0909337028093360237
:100840009093390280933802109214024093170259
:1008500085EA8093BC001F910F91089510920E02BB
:10086000E0911602EA3048F481E08E0F8093160280
:10087000F0E0E35FFD4F878D089580E008952091BB
:10088000C1002F7D2093C100709142022091C100D0
:1008900020622093C100462F50E024E130E0271B66
:1008A00031092417350724F1FC01615008F1A091AA
:1008B000410291E09A0F909341028491B0E0A25CD2
:1008C000BD4F15968C93943110F010924102809197
:1008D000C1008F7D8093C100809142028F5F809321
:1008E00042028091C10080628093C1003196DDCFC9
:1008F0000895809142028823A1F0E091400291E0A6
:100900009E0F90934002F0E0E25CFD4F2581209322
:10091000C600943110F01092400281508093420240
:1009200008958091C1008F7D8093C100089530911A
:10093000C60090915D02911102C03D3001F180919D
:100940005C028B3008F5E0915B0221E02E0F2093D2
:100950005B02F0E0E25CFD4F30A32A3011F410920C
:100960005B028F5F80935C029923E9F098131BC0B0
:100970008091C1008F768093C10010925B02E0915C
:100980006802F09169020EC081E080933E0280937C
:100990003F028091C1008F768093C100E0916A028E
:1009A000F0916B020994089580915B028B3010F0F6
:1009B00010925B02E0915B0281E08E0F80935B02FC
:1009C000F0E0E25CFD4F80A10895EEE3F2E0158EC9
:1009D000168E878F73A762A755A744A7E1ECF0E0B6
:1009E00080818069808308951092A101EEE9F1E091
:1009F000118210820895CF93C091A101C130D1F02E
:100A000018F0C23091F137C0329906C010929E01A1
:100A10001092A00181E020C080919E01882359F1AD
:100A200080939F016FE971E088E00E94281710927F
:100A30009E0121C088E00E94D5170A97E0F0329904
:100A40000EC0C0939E018091A00191E0980F9093F9
:100A5000A0018D3230F082E08093A10102C010929B
:100A6000A10188E0CF910C94DE17329B04C0C093A3
:100A70009E011092A101CF91089581E08093A4017D
:100A80000895CF93DF938091A401813029F008F479
:100A90004CC0823041F089C081E00E946F178823EA
:100AA00009F483C009C0E091A201F091A3018481FF
:100AB0009581892B21F45F981092A40176C08381DF
:100AC000882319F0813021F009C0C8ECD0E00BC0B8
:100AD0008281882331F0CCEBD2E005C0C0E0D0E0C9
:100AE00002C0CCE2D1E08BE00E94D5178C179D07A5
:100AF00008F45BC0E091A201F091A30182818823F8
:100B000061F05F98E091A201F091A30112828481CB
:100B1000958101979583848343C05F9AE091A201F8
:100B2000F091A30181E082833BC08BE00E944817D3
:100B30008823D9F140910C0550E0542F442780912F
:100B40000D05480F511D60910A0570E0762F66274C
:100B500080910B05680F711D8091580490E0982FCB
:100B6000882720915704820F911D0E948118E091DF
:100B7000A201F091A301882319F08091090502C018
:100B80008091080580838081882379F08BE00E9422
:100B900059179093A3018093A20182E08093A4014E
:100BA0008BE0DF91CF910C94DE17DF91CF91089508
:100BB0001092A7018CE00C94DE17CF93DF93809105
:100BC000A701882309F499C0823009F0A2C080915E
:100BD000A6018F5F8093A6012091A5012F5F20932E
:100BE000A501843080F11092A60188E794E0FC0111
:100BF0003EE040A551A553A742A7DC01A758BF4F2F
:100C00004C9111964C9391974C9111964C93315075
:100C1000329701973111EDCF809165049091660470
:100C20009093870480938604809174048093E404F5
:100C300080916F04811105C0809170048093C40479
:100C400002C01092C4042C3308F454C01092A501C1
:100C5000A0ECB4E0E2ECF4E088E794E02EE05E91F2
:100C60004E9152934293EC01C857DF4F3881219641
:100C70003883A1973881219638832150019721111B
:100C8000EECFE6E8F4E024EA34E080E090E0419141
:100C90005191840F951F2E173F07C9F76FE070E041
:100CA0000E94401A7093A5046093A404E4EEF4E05B
:100CB00023EF34E080E090E04191840F911D2E17E6
:100CC0003F07D1F76FE070E00E94401A6093F30491
:100CD000E4ECF4E023ED34E080E090E04191840F17
:100CE000911D2E173F07D1F76FE070E00E94401A68
:100CF0006093D3041092A7010CC08CE00E94D5171A
:100D000080369A4E30F08CE00E94DE1782E08093AD
:100D1000A701DF91CF910895E7E6F4E010821282F7
:100D20008CE983871092AD0185E00C94DE17109258
:100D3000B2004E9B06C08091B2008536D0F380E0B1
:100D400008958091B20008951092B20099B1892F50
:100D5000807496FD05C09091B2009536B8F302C03C
:100D60008091B2000895AF92BF92CF92DF92EF923E
:100D7000FF920F931F93CF93DF93C091AD01C130CA
:100D8000B9F020F0C33009F47CC0E1C08091670461
:100D90008111DDC085E00E94D517813D974008F4A0
:100DA000D6C0569A5E9885E00E94DE1781E05FC04B
:100DB00085E00E94D517029708F4C9C0FFB6F894E1
:100DC00056980E949706811107C0C0936704C0938C
:100DD0006804C093690423C00E94A406811104C062
:100DE000C093680482E019C00E94970681111BC05D
:100DF000C093680411C00E949706882351F0CC0F5D
:100E00008D3308F0C160D15099F00E94A406811181
:100E1000F2CF81E08093680483E0809369041092AC
:100E2000AD01FFBE94C008EA11E0D8E0C0E0EDCF0C
:100E3000F801C1938F01F1E00D3A1F07B1F7FFBE32
:100E40002091AC0130E04091A8018091A90190E08F
:100E5000840F911D4091AA01840F911D4091AB0117
:100E6000840F911D99272817390721F483E0809377
:100E7000AD016DC081E08093680484E080936904D3
:100E800060C0BFB6F894E091A801F091A901FE27D7
:100E9000EF27FE27C091AA01D091AB01E090AC01F1
:100EA00030917204A0907304CF016AE070E00E9458
:100EB000401A262FF82EC62E00917604D090770483
:100EC0009C2F8D2FEC0197FDDF77192F111F112714
:100ED000111FCE016AE070E00E94401A962F919592
:100EE000111101C0962F492F3C3919F093170CF4BA
:100EF000432FA9160CF49A2D322F002319F0C01697
:100F000008F4302FF0936B04E0936A04D0936D04DF
:100F1000C0936C04E0926E0410936F0460937004AD
:100F2000809371044093720490937304209374042B
:100F3000F092750430937604CD1430F0D09277049B
:100F4000BFBE1092AD0103C020937704F9CFDF91AB
:100F5000CF911F910F91FF90EF90DF90CF90BF90B6
:100F6000AF9008951092B10187E00C94DE17809144
:100F7000B101813089F020F0823009F441C0089538
:100F800087E00E94D517892B09F447C081E0809340
:100F9000B10187E00C94DE1786B183702091AE0119
:100FA0009091AF01213099F01CF4222331F01DC043
:100FB000223091F02330A9F018C0823011F4915002
:100FC00003C0813091F49F5F9093AF010EC08823DE
:100FD000B1F38330C1F309C0833089F3882399F3D7
:100FE00004C0813061F3823071F38093AE0180914F
:100FF000AF018D5F873078F082E08093B101089572
:101000008091AF018093B0011092AF0160EB71E06D
:1010100087E00E9428171092B101089581E0809323
:10102000B60182E00C94DE1766E672E080E00E9472
:10103000F1116EE572E081E00E94F11166E572E067
:1010400082E00E94F1116EE472E083E00E94F111EF
:1010500066E472E084E00E94F1116EE372E085E0E4
:101060000E94F11166E372E086E00E94F1116EE2E7
:1010700072E087E00C94F111FF920F931F93CF93CE
:10108000DF93F62EC42F8052873420F5E82FF0E04E
:10109000EE0FFF1FE05FFE4F00811181011511056A
:1010A000C9F0642F8F2D0E941812DC2FF801849153
:1010B000843279F0863239F4F3946C2F8F2D0E94AC
:1010C0001812DC2F03C0DF5F0E94AF120F5F1F4FAB
:1010D000EDCFCD2F8C2FDF91CF911F910F91FF90EE
:1010E00008951F93CF93DF93162FEC0189918823E6
:1010F00029F0612F0E943C08482FF8CF842FDF9100
:10110000CF911F9108951F93CF93DF93EC01162F7A
:10111000FE018491882331F0612F0E943C08482F02
:101120002196F6CF842FDF91CF911F91089565ED21
:1011300074E080E00E94F1116DEC74E081E00E94A7
:10114000F11165EC74E082E00C94F111CF93DF9320
:101150000E94CD12C0E080917A04DC2FD81B8D2F25
:101160000E94D41941E06C2F0E94A3128D2F0E947F
:10117000FE1943E16C2F0E94A312CF5FC43059F7D0
:10118000DF91CF91089565E175E080E00E94F11153
:101190006DE075E081E00E94F11165E075E082E0AC
:1011A0000E94F1116DEF74E083E00E94F11165EF90
:1011B00074E084E00E94F1116DEE74E085E00E941D
:1011C000F11165EE74E086E00E94F1116DED74E0BE
:1011D00087E00C94F111EF92FF920F931F93CF933E
:1011E000DF93C82FD62F042F1DEF160F8AEEE82E9F
:1011F00080E0F82EC83020F0C850F701849106C076
:10120000EC2FF0E0EE51FF4F8491C0E0402F6D2FA6
:101210000E94B412D1501D13EDCFDF91CF911F91D9
:101220000F91FF90EF9008958F929F92AF92BF928F
:10123000CF92DF92EF92FF920F931F93CF93DF93A2
:1012400000D000D0CDB7DEB7182FD92EF62EE82F5C
:10125000F92F30E080E09E2F911B9F1558F490816C
:10126000882311F0981708F4892F391708F4392FBB
:101270003196F1CF481718F4B82EB41A01C0B12C2A
:10128000340F231708F4322F8B2C912C832F90E0EE
:101290008819990968E170E00E94541A062F6623A4
:1012A00029F0863020F001E0060F01C001E022E0C5
:1012B00041E0BE016F5F7F4F832F0E94E71742E13D
:1012C00061E00E94601222E041E0BE016F5F7F4F4B
:1012D0008B2D0E94E71742E163E00E946012A12E6D
:1012E000BD2CD12C10E0DF14B1F0CC2019F04E2D24
:1012F0004D1902C04D2D4E0DF50181915F0190E019
:1013000088199909B8010E94541A862F63E00E9437
:10131000EB08D394E8CF0F900F900F900F90DF91D0
:10132000CF911F910F91FF90EF90DF90CF90BF90E2
:10133000AF909F908F9008957F928F929F92AF92DF
:10134000BF92CF92DF92EF92FF920F931F93CF93B2
:10135000DF9300D000D000D0CDB7DEB7782EF92EC5
:10136000D62EA82FB92F50E0E0E0F0E000E010E02A
:101370005D1589F08D919C9111970115110519F05A
:101380008017910708F48C01E817F90708F4FC01AD
:1013900012965F5FEDCF50E04017510718F4041B21
:1013A000150B02C000E010E0E40FF51F2E173F07F9
:1013B00008F4F901CF01801B910B68E170E00E94F5
:1013C000401A5B01672B31F0069738F08FEFA81AAF
:1013D000B80A03C0AA24A394B12C24E041E0BE01C2
:1013E0006F5F7F4FCF010E94201840E161E00E94B3
:1013F000601224E041E0BE016F5F7F4FC8010E9490
:10140000201840E163E00E946012872C9F2CF12C91
:10141000FD14B1F0CC2019F04E2D4F1902C04F2D04
:101420004E0DF401819191914F01801B910BB501FB
:101430000E94401A862F63E00E94EB08F394E8CFE5
:1014400026960FB6F894DEBF0FBECDBFDF91CF91C9
:101450001F910F91FF90EF90DF90CF90BF90AF90D2
:101460009F908F907F900895CF92EF920F931F934C
:10147000CF93DF9300D000D000D0CDB7DEB7E0919E
:10148000B6018E2F90E08830910508F06FC4FC0102
:10149000EC5CFF4F0C94681A82E00E946F1788235F
:1014A00009F464C40E94140882E022C043E060E0B2
:1014B00082EC94E00E94830849E060E080EC94E0D4
:1014C0000E94A31242E063E086EB94E00E94A31224
:1014D0004DE060E08EEA94E00E94A3124DE061E0EE
:1014E00086EA94E00E94A31282E00E94DE1783E065
:1014F0008093B6013BC482E00E94D517813D97409E
:1015000008F434C484E0F4CF82E00E94D5174997F0
:1015100008F42CC4809100019FEF980F9093000174
:10152000882369F010E060910001812F0E94181259
:1015300080E20E94AF121F5F1430A9F70EC421E0B1
:1015400040E060E080E10E94CE100E94CD1285E074
:10155000CFCF40E060E08DE694E00E94A31286E0E9
:10156000FAC38091B501823019F408E012E502C097
:1015700004EF11E082E00E94D5170817190708F060
:10158000F5C36091B5016F5F6093B501623049F0BA
:10159000633051F0613069F4809155048823A1F0E3
:1015A0000FC08091670402C080915F04882341F0DE
:1015B0000BC084E00E9439171092B60183E0CEC3BD
:1015C00042E183E593E003C040E186E593E00E94B9
:1015D000A312C3C3E0917B0420917C04E0937C04BC
:1015E0008E2F90E0FC013197EC30F10508F0A4C398
:1015F000E45CFF4F0C94681A213051F00E94CD1228
:101600000E94140841E160E081E594E00E94A31289
:1016100022E041E0BE016F5F7F4F809158040E943D
:10162000E71740E060E00E947108182F22E040E0D8
:10163000BE016F5F7F4F809157040E94E71741E022
:10164000410F60E00E9471089091B40181E046E092
:1016500061E089278093B401882319F084E693E040
:1016600002C080E693E00E94A31222E040E0BE01A7
:101670006F5F7F4F80915A040E94E7174FE060E050
:101680000E94601222E040E0BE016F5F7F4F8091B8
:101690005B040E94E71742E160E00E946012E09163
:1016A0005904F0E0EE0FFF1FEE5FFE4F40E161E0F6
:1016B000808191810E94A31280916F0440E063E0D9
:1016C000882319F082E693E002C080E693E00E944E
:1016D000A31222E041E0BE016F5F7F4F8091700452
:1016E0000E94E71741E063E00E94601222E041E0BF
:1016F000BE016F5F7F4F809174040E94E71747E03F
:1017000063E00E94601224E041E0BE016F5F7F4F02
:1017100080916504909166040E9420184DE063E07A
:101720000E94601280915F044CE063E0882319F00E
:1017300080EE90E002C080E693E00E94A312FEC219
:10174000223009F4FBC20E94CD120E94C30840E07F
:1017500060E081E494E00E94A312C12CE12C03E03C
:1017600028E833E148EC6FE086E894E016C02330C7
:1017700009F4E4C20E94CD120E94C30840E060E078
:1017800082E394E00E94A312C12CE12C03E028E83C
:1017900033E148EC6FE084EA94E00E949C09CEC2F9
:1017A000243009F4CBC20E94CD1240E060E08FE10A
:1017B00094E00E94A312C12CE12C03E023E64AE04E
:1017C0006FE084EE94E013C0253009F4B7C20E94A4
:1017D000CD1240E060E08DE094E00E94A312C12CA5
:1017E000E12C03E023E64AE06FE083EF94E00E94FF
:1017F0001409A4C2263009F4A1C20E94CD1240E00F
:1018000060E08DEF93E00E94A312C12CE12C03E075
:1018100022E34AE06FE084EC94E0E9CF273009F45A
:101820008DC20E94CD1240E060E08EEE93E00E94F7
:10183000A312C12CE12C03E022E34AE06FE083ED28
:1018400094E0D5CF283021F00E9497080E94A60886
:1018500080917F04882309F471C210927F048091E3
:10186000B2019091B301FC013296459154912091BF
:101870005304309154042417350739F440917A0405
:10188000442319F0415040937A04FC01459154914E
:101890002417350739F440917A04433018F44F5F28
:1018A00040937A0440917A04411108C0F9013296BC
:1018B000459154914C52514029F508C0443031F4BF
:1018C000F901459154914C525140E1F4AC014A5F09
:1018D0005F4FFA01659174916C52714031F0FA01D9
:1018E000459154912417350769F00496FC01459100
:1018F00054914C52514041F0FC018591949128172C
:10190000390711F40E94A60810E080917A0440E0A3
:10191000612F811305C08EED90E00E94C11204C0BA
:1019200080E693E00E94A3121F5F143071F780914C
:101930005304909154049093B3018093B201FEC17B
:10194000809180048823B1F1109280040E94CD120E
:1019500040E060E087ED93E00E94A3124EE063E078
:101960008FE493E00E94A31242E163E08CE493E0F1
:101970000E94A31280917904833079F030F4813091
:1019800051F0823089F447E010C0843041F0853056
:1019900059F441E105C044E008C04AE006C04DE00A
:1019A00063E086E693E004C041E061E08BE593E00C
:1019B0000E94A312E0915904F0E0EE0FFF1FEE5FCA
:1019C000FE4F40E062E0808191810E94A31222E0FC
:1019D00040E0BE016F5F7F4F80915A040E94E7177D
:1019E00044E062E00E94601246E062E08EE593E02F
:1019F0000E94A31222E040E0BE016F5F7F4F809102
:101A00005B040E94E71747E062E00E94601249E031
:101A100062E08EE593E00E94A31222E040E0BE0166
:101A20006F5F7F4F80915C040E94E7174AE066C0B9
:101A300080918004882391F1109280040E94CD123D
:101A400040E060E080EC93E00E94A3124EE063E08F
:101A50008FE493E00E94A31242E163E08CE493E000
:101A60000E94A31280917904823059F020F48130D1
:101A700079F443E00EC0833031F0843049F441E121
:101A800003C046E006C04DE063E086E693E004C094
:101A900040E061E08BE593E00E94A31222E040E089
:101AA000BE016F5F7F4F809158040E94E71740E0AE
:101AB00062E00E94601242E062E084E693E00E94ED
:101AC000A31222E040E0BE016F5F7F4F8091570478
:101AD0000E94E71743E062E00E94601245E062E086
:101AE00084E693E00E94A31222E040E0BE016F5F13
:101AF0007F4F809156040E94E71746E062E00E9403
:101B000060121CC1809180048823B1F0109280047F
:101B10000E94CD1240E060E084E993E00E94A312AD
:101B20004EE063E08FE493E00E94A31242E163E0A1
:101B30008CE493E00E94A31222E041E0BE016F5FBB
:101B40007F4F809102050E94E71742E160E00E940A
:101B5000601222E041E0BE016F5F7F4F809103057C
:101B60000E94E71742E161E00E94601222E041E03A
:101B7000BE016F5F7F4F809104050E94E71749E027
:101B800062E00E94601222E040E0BE016F5F7F4F82
:101B9000809105050E94E7174CE062E00E94601208
:101BA00022E041E0BE016F5F7F4F809106050E94F9
:101BB000E7174FE062E00E94601222E040E0BE01C1
:101BC0006F5F7F4F809107050E94E71742E162E057
:101BD0000E946012E09179048E2F90E0FC01319711
:101BE000E730F10538F4E85BFF4F0C94681A63E1C5
:101BF00081E089C020E040E060E08EE00E94CE10ED
:101C000063E180E080C0809180048823B1F010926D
:101C100080040E94CD1240E060E088E693E00E94DC
:101C2000A3124EE063E08FE493E00E94A31242E12E
:101C300063E08CE493E00E94A3128091080541E1E7
:101C400060E0882319F088E493E002C084E493E024
:101C50000E94A3128091090541E161E0882319F0F7
:101C600088E493E002C084E493E00E94A31222E09F
:101C700041E0BE016F5F7F4F80910A050E94E71728
:101C800049E062E00E94601222E040E0BE016F5F26
:101C90007F4F80910B050E94E7174CE062E00E94A5
:101CA000601222E041E0BE016F5F7F4F80910C0522
:101CB0000E94E7174FE062E00E94601222E040E0DD
:101CC000BE016F5F7F4F80910D050E94E71742E1D3
:101CD00062E00E946012E09179048E2F90E0FC0196
:101CE0003197E730F10518F5E15BFF4F0C94681A66
:101CF00040E161E01EC020E040E060E08EE00E9434
:101D0000CE106AE082E00E94181218C06DE0FACF8F
:101D100060E1F8CF63E1F6CF20E040E060E08CE0E6
:101D20000E94CE104DE063E004C041E1FCCF40E1F1
:101D300060E086E693E001CD0E94CD1282E00E9431
:101D4000DE171092B60112C082E00E94D517843FC0
:101D5000914038F087E08093B60182E00E94DE1760
:101D600005C081E00E9448178111F4CF26960FB676
:101D7000F894DEBF0FBECDBFDF91CF911F910F91C1
:101D8000EF90CF9008951092B70183E00C94DE1786
:101D90008091B701882319F0813011F10895809165
:101DA0008104882389F083E00E944817882309F47E
:101DB00042C083E00E945917DC01EC91F0E0E75C3F
:101DC000FE4FE491E8BD089583E00E94D5178A3F55
:101DD000910588F181E08093B70183E00C94DE17D0
:101DE0004091060550E0542F442780910705480F85
:101DF000511D6091040570E0762F662780910505DE
:101E0000680F711D8091580490E0982F88272091C9
:101E10005704820F911D0E948118882319F0E091C8
:101E2000030502C0E0910205F0E0E75CFE4FE4919B
:101E3000E8BD1092B70108951092BB011092BA014B
:101E40000895CF93C091BB01C13029F0A8F1C230F1
:101E500009F453C0B6C081E00E946F17882331F0A7
:101E60001092BB012A9829982898ABC089E00E945B
:101E7000D517843F914008F4A4C08091BA01833003
:101E800020F48F5F8093BA0102C0C093BA018091A1
:101E9000BA01823031F0833039F0813049F42A9A26
:101EA00008C02A98299A06C02A982998289A0CC00E
:101EB0002A982998289808C080E00E946F178823E4
:101EC00029F081E08093BB0189E078C089E00E941D
:101ED0004817882309F475C089E00E945917909328
:101EE000B9018093B80121E0FC01218382E0809355
:101EF000BB0189E00E94DE1760C0E091B801F0915B
:101F0000B90185819681019631F48AE00E944817D3
:101F1000882399F00CC089E00E94D517E091B801A0
:101F2000F091B901258136818217930770F32A98C1
:101F3000299828981092BB0144C0E091B801F09113
:101F4000B9018181882319F18381813051F030F00A
:101F5000823051F42A982998289A06C02A9A2998FA
:101F600002C02A98299A2898E091B801F091B90105
:101F70008281882331F18AE00E94D517843F914005
:101F800000F1E091B801F091B901118216C02A98D0
:101F900029982898E091B801F091B90182818823AD
:101FA00081F08AE00E94D517843F914050F0E09183
:101FB000B801F091B90181E081838AE0CF910C945E
:101FC000DE17CF91089585E00C94391786E00C94C4
:101FD0003917EEE5F4E01082118281E08093BC01B4
:101FE0000895FC01319691E080E0961720F421914C
:101FF000820F9F5FFACF81950895CF92DF92EF9283
:10200000FF920F931F93CF93DF93CDB7DEB729973E
:102010000FB6F894DEBF0FBECDBF8091BC018130FA
:1020200081F008F1833009F445C0843009F0A2C082
:102030008E010F5F1F4F6E0189E0C80ED11C780121
:102040005BC08091C1008F768093C10069E08DEF05
:1020500090E00E943F0469E084EF90E00E943F041A
:102060001092BC0116C086E00E94D51781329E44B2
:1020700008F480C069E08BEE90E00E943F0446EED9
:102080005FE063EE7FE089E00E94E50483E08093F7
:10209000BC0186E029960FB6F894DEBF0FBECDBF17
:1020A000DF91CF911F910F91FF90EF90DF90CF9034
:1020B0000C94DE1785E00E944817882331F01092B7
:1020C0005F0484E08093BC0155C086E00E944817FD
:1020D000882341F081E080935F0482E08093600474
:1020E0001092BC0186E00E94D517C39708F442C045
:1020F00081E080935F0415C00E94D404F8018193AD
:102100008F01EC15FD05C1F70E94D404182F68E07B
:10211000C7010E94F10F181739F081E080935F0426
:1021200084E08093600424C08B8190E0982F8827FE
:102130002C81820F911D90936604809365042091F9
:102140006104309162042115310519F0821793075B
:1021500020F4909362048093610420916304309191
:1021600064042817390720F490936404809363046F
:102170001092BC0129960FB6F894DEBF0FBECDBFFA
:10218000DF91CF911F910F91FF90EF90DF90CF9053
:10219000089581E08093C1010C94DE179091700244
:1021A000903F38F55FB7F89490916E0230917002CD
:1021B000E92FF0E0DF01AA0FBB1FA459BD4F159610
:1021C0008C93EE0FFF1FEE58FD4F462B2F73422BC3
:1021D000408381E0830F903F38F4809370029F5FCB
:1021E00090936E025FBF089510926E02809370020A
:1021F000F9CF08950F931F93CF93DF9300D000D0B2
:10220000CDB7DEB78091C101813009F492C030F0C2
:10221000823061F0833009F458C0DAC080917002D6
:10222000882309F4D5C01092BF0181C080910D02AE
:10223000882321F081E00E94DE17CAC08091BF018F
:10224000811105C08091700281110BC039C081E0FD
:102250000E94D5172091BF0130E02817390790F36D
:10226000B7C081508093700220916F02822F90E05E
:10227000FC01EE0FFF1FEE58FD4F3081432F4078D9
:102280004093BE01432F40744093BD013F73309390
:10229000BF01880F991FFC01E459FD4F8581809390
:1022A000C001203F20F42F5F20936F0202C01092E4
:1022B0006F0281E080936C0283E08093C10188C04B
:1022C00010926C021092C10183C080910D028111A5
:1022D0007FC05091BD018091C001682F6295607FE1
:1022E000282F207F7091BE01FE01319640E0CF0182
:1022F000552311F04230A9F03EEF340F323010F088
:10230000208301C06083703819F4308131603083DC
:1023100040FD03C03081326030834F5F31964430DE
:1023200039F700E010E020E060E40E94EC0382E076
:10233000C4CF81E00E94D5178035910508F448C0CC
:102340008FB7F894ECE6F2E02CE434E015821682C4
:1023500032962E173F07D1F78FBF24E140E460E0AB
:1023600080E30E94CE1025E040E460E080E30E941C
:10237000CE1021E040E460E080E30E94CE1020E037
:1023800040E460E080E20E94CE1020E040E060E0A7
:1023900088E20E94CE1020E040E060E088E00E94E9
:1023A000CE1022E040E060E081E00E94CE1020E00C
:1023B00040E060E08CE00E94CE1020E040E060E071
:1023C00086E00E94CE101092C10182E00E94651743
:1023D0000F900F900F900F90DF91CF911F910F9161
:1023E00008950F931F93CF93DF93EB0128E0829F13
:1023F000C001112420E040E060E080640E94CE1023
:102400008E01085F1F4FFE01849120E040E060E8EC
:102410000E94CE102196C017D107A9F720E040E016
:1024200060E080E8DF91CF911F910F910C94CE1066
:1024300080936D0280FF02C090E401C090E0823082
:1024400008F09C5E892F860F21E040E060E0806804
:102450000C94CE100F931F93CF93DF938C01F80150
:10246000C1918F01CC2339F1CA3031F0CD3071F0F8
:10247000C930D1F4D4E010C080916D02843020F4D2
:102480008F5F80936D0202C010926D0260E08091B8
:102490006D020E941812E3CF20E040E060E880E285
:1024A0000E94CE10D150C1F720E040E060E88C2FB0
:1024B0000E94CE10D4CFDF91CF911F910F9108953C
:1024C000CF93DF93EC01862F642F0E941812CE0168
:1024D000DF91CF910C942A120F931F93CF93DF9328
:1024E0008C01F801C491CC2349F1CA3031F0CD30D0
:1024F00071F0C930D1F4D4E010C080916D02843005
:1025000020F48F5F80936D0202C010926D0260E034
:1025100080916D020E9418120EC020E040E060E839
:1025200080E20E94CE10D150C1F720E040E060E888
:102530008C2F0E94CE100F5F1F4FD3CFDF91CF9112
:102540001F910F910895CF93DF93EC01862F642F95
:102550000E941812CE01DF91CF910C946C1220E0F2
:1025600040E060E80C94CE10CF93C82F862F642FE4
:102570000E94181220E040E060E88C2FCF910C946C
:10258000CE10CF93262FFC01C491642F822F0E947E
:1025900018128C2FCF910C94AF1223E040E060E032
:1025A00081E00E94CE1021E040E060E084E10E94E2
:1025B000CE1010926D020895A2E0B5E0E2ECF1E0D9
:1025C0008D91819381E0E43DF807D1F70895A2EC65
:1025D000B1E0E2E0F5E08D91819385E0E431F80728
:1025E000D1F70895CF93CFB7F894F999FECF42E190
:1025F00050E060E070E082E095E00E946E1ACFBF8C
:10260000CF910895E8E7F4E01682158281E0809387
:10261000E1010E94F21280E00C94DE17CF93CFB755
:10262000F894F999FECF42E150E060E070E082E07A
:1026300095E00E947E1ACFBFCF910895CF93DF938C
:102640002091E101213009F4EDC138F0223009F484
:10265000F6C1233009F401C227C288E00E9448175E
:10266000882309F4B3C088E00E945917FC018081D7
:10267000E0917B04823071F4E83009F4A7C088E06F
:1026800080937B0410927A040E94CA1981E00E9410
:1026900039179CC08E2F90E0FC013197EC30F1058A
:1026A00008F094C0EA5AFF4F0C94681A82E001C007
:1026B00083E080937B0481E0DF91CF910C94391704
:1026C00084E0F7CF85E0F5CF86E0F3CF87E0F1CF68
:1026D00081E080937B04F0CFE0915304F0915404A7
:1026E0003A96E491E33099F048F4E13069F0E23051
:1026F00011F58EE00E94391789E00DC0E53089F0B0
:10270000E630C9F48CE00EC0E0937B0414C08EE088
:102710000E9439178AE080937B0481E080938004D3
:102720000AC08BE080937B0481E0809381048093D6
:1027300080040E94DC1210927A04E0915304F0911C
:1027400054043696859194910E94BE19B4CF81E0CD
:102750008093800490917904890F80937904943058
:1027600008F4A9CF853011F48FE001C08DE00E94FC
:1027700039171092790488E080937B0481E080937C
:102780007F0499CF81E08093800490917904890F30
:1027900080937904933008F48ECF843039F780E148
:1027A000E6CF81E08093800490917904890F809333
:1027B0007904963008F47FCF873029F00E94E71221
:1027C00010928104D6CF0E940E13FACF87E00E94A8
:1027D0004817882309F4C1C087E00E945917DC011B
:1027E00080917B048A3009F44BC028F4883051F082
:1027F0008930C1F0B2C08B3009F459C08C3009F473
:1028000081C0ABC08C91E0915304F0915404181630
:102810000CF03296859194910E94BE1981E00E943D
:1028200039179BC080917904843068F0843011F4AA
:1028300085E003C0853019F484E08093790481E059
:1028400080938004EBCF90E0EC01C75ADB4FFC0192
:10285000E85DFE4F2491FC01EC5DFE4F84913C91BC
:10286000988113162CF49F5F891708F474C06AC00E
:102870009150921708F46DC0981708F06AC062C0B2
:1028800020917904233030F02330B1F22430B9F6AE
:1028900083E0D3CF30E0C8E5D4E0C21BD30BF9010D
:1028A000EF5DFE4F9491F901E25EFE4F43C020912F
:1028B0007904263058F530E0E901CE5FDA4FF901AE
:1028C000E85EFE4F9491F901EE5EFE4F24913C913B
:1028D000888113162CF48F5F281738F4988308C06A
:1028E0008150891720F0821710F4888301C0288353
:1028F00080917904823008F091CFBE0183E00E947C
:1029000028178CCF20917904263048F0263011F416
:1029100087E093CF273009F092CF86E08ECF30E06A
:10292000E901C85FDA4FF901E45FFE4F9491F901C4
:10293000EA5FFE4F24913C91888113162CF48F5F3F
:10294000281738F498836ACF8150891720F08217AE
:1029500010F4888363CF288361CF80915F04811155
:1029600009C00E94D517883E934020F083E08093F1
:10297000E10153C080917D0420917E04821709F407
:1029800093C091E09093DA019093DB014FEF5FEFFA
:102990005093E0014093DF018330E9F048F4813047
:1029A000B1F0823071F59093DC018093DD0129C094
:1029B0008430F1F0853029F51092DC011092DD01B0
:1029C0009093D5019093D70129E030E016C0109282
:1029D000DC0192E00FC01092DC019093DD01223007
:1029E00081F49093D5011092D70123E030E005C027
:1029F0009093DC019093DD0104C03093D9012093C2
:102A0000D80180937E046AED71E089E00E94281766
:102A100064ED71E08BE00E94281780E0DF91CF9198
:102A20000C94DE1780E00E94D51785369105E0F101
:102A300080E00E94651782E08093E10135C084E068
:102A40000E944817882381F181E00E946517109247
:102A5000E10181E080937B0427C08091650490911F
:102A60006604853833E0930710F481E019C0AC01A7
:102A7000455853404336510510F482E011C0AC0173
:102A8000485E53404C3B524018F420937D040AC0EA
:102A9000845A96408C32914010F484E001C085E065
:102AA00080937D041092E101DF91CF9108951092FF
:102AB000E20108958091E201089581E08093F1019F
:102AC00084E00C94DE17FF920F931F93CF93DF9354
:102AD0001F92CDB7DEB7E091F1018E2F90E08D30DF
:102AE000910508F099C1FC01EE59FF4F0C94681A4A
:102AF00084E00E94D517449708F48EC182E00FC08D
:102B000080910D02811188C12FE330E042E061E045
:102B10008EED0E94B503882309F47EC183E0809383
:102B2000F1017AC180910D02811176C180910F026D
:102B300081110EC011E0109355040E942E0480FFF5
:102B400004C082E08093E30127C11093E30124C114
:102B50001092550421C180910D0281115DC182E066
:102B600089830FE310E022E041E06EEDCE01019693
:102B70000E94EC0385E0D3CF80910D0281114CC1FE
:102B800086E0F82EF9820FE310E022E041E06EEDDE
:102B9000CE0101960E94EC038091E3011092E301C3
:102BA000823059F018F48130D9F1F6C0833041F009
:102BB000843009F0F1C08CE0B2CFF092F1012CC169
:102BC0008BE0ADCF80910D02811126C10E94781853
:102BD0008093E40184E30E9478188093E5018EE0FD
:102BE0000E94781880688093E60181E00E9478183E
:102BF0008093E70182E00E9478188093E80183E1E6
:102C00000E9478188093E90184E08093EA0100E350
:102C100010E022E047E06EED84EE91E00E94EC03CC
:102C200087E07DCF80910D028111F6C088E1898314
:102C300001E110E022E041E06EEDCE0101960E943C
:102C4000EC0388E0E4C084E00E94D5170C9708F4F8
:102C5000E3C01092E3011092F101DBC08EE00E940C
:102C60004817811115C080910D028111D5C020E354
:102C700030E042E067E08EED0E94B503882309F45E
:102C8000CBC08AE04CCF8EE00E944817882319F011
:102C90001092010181C080910D028111BDC004EE2E
:102CA00011E00E942E04F80181938F01F1E00B3EA8
:102CB0001F07B9F78091E4010E946F1880935604B2
:102CC0008091E5010E946F18809357048091E6017E
:102CD0008F770E946F18809358048091EA01809347
:102CE00059048091E7010E946F1880935A048091E3
:102CF000E8010E946F1880935B048091E9010E94B3
:102D00006F1880935C0448C080910D02811184C0CB
:102D1000809159048093EA0180915A040E947818A6
:102D20008093E70180915B040E9478188093E8010A
:102D300080915C040E9478188093E90103E310E01D
:102D400022E044E06EED87EE91E01EC080910D021E
:102D5000811162C0809156040E9478188093E4012A
:102D6000809157040E9478188093E501809158045F
:102D70000E94781880688093E60100E310E022E06A
:102D800043E06EED84EE91E00E94EC0381E08093DD
:102D9000010184E00E94DE171092F1013DC0809194
:102DA00055048823C9F18091E301882311F084E060
:102DB000B6CE8EE00E9448178111109201018DE07D
:102DC0000E944817882319F081E0809301018FE069
:102DD0000E944817882329F084E08093F10183E062
:102DE00008C080E10E944817882331F084E0809376
:102DF000F1018093E30110C080910101882361F00B
:102E000084E00E94D517843F914030F089E08093A0
:102E1000F10184E00E94DE170F90DF91CF911F91A6
:102E20000F91FF90089580E090E0FC01EE0FFF1FEE
:102E3000E80FF91FE95EFA4F108201968131910582
:102E4000A1F7109214051092150510921605089519
:102E500090E0FC01EE0FFF1F8E0F9F1FFC01E95E4B
:102E6000FA4F8081811104C081E080837283618385
:102E7000089590E0FC01EE0FFF1F8E0F9F1FFC01D5
:102E8000E95EFA4F8081811102C081E0808308955C
:102E900090E0FC01EE0FFF1F8E0F9F1FFC01E95E0B
:102EA000FA4F8081823019F4108281E0089580E029
:102EB000089590E0FC01EE0FFF1F8E0F9F1FFC0195
:102EC000E95EFA4F818192810895E82FF0E0EC5E8F
:102ED000FA4F8081811102C081E080830895E82F3C
:102EE000F0E0EC5EFA4F908181E0923009F080E0F2
:102EF00008952FB7F89480E090E032E0FC01EE0FE7
:102F0000FF1FDF01A80FB91FA95EBA4F4C914230D5
:102F100009F41C92E80FF91FE95EFA4F4081413035
:102F200009F4308301968131910541F780E090E00A
:102F300032E0FC01EC5EFA4F4081423009F410822D
:102F40004081413009F4308301968330910589F73F
:102F50002FBF089580E090E0FC01EE0FFF1FEE50C0
:102F6000FE4F1182108201968D309105A9F70895C8
:102F7000FC014081AFB7F8944423A9F020E030E091
:102F800050E0F901EE0FFF1FEE50FE4F608171819E
:102F9000640F751F718360832F5F3F4F2D303105A4
:102FA00081F7FC011082AFBF0895E82FF0E0EE0F2B
:102FB000FF1FEE50FE4F808191810895E82FF0E0D1
:102FC000EE0FFF1FEE50FE4F118210820895CF9337
:102FD000DF93DB01E8E7F2E0EB016D5F7F4F3491B7
:102FE00090E0831718F09F5F831BFBCF905D999350
:102FF0003196C617D70799F713961C921397442357
:1030000069F08C91803351F480E28C9311969C91FD
:103010001197903319F411968C931197CD0143E0D9
:1030200050E0BA01621B71099B01482F4A1B50E016
:103030004217530714F40196F8CFDF91CF9108950A
:10304000AF92BF92CF92DF92EF92FF920F931F93B6
:10305000CF93DF937C010EE612E0DB015B0185E09C
:10306000A80EB11CEB01F801C590D49090E0EC14CF
:10307000FD0420F09F5FEC18FD08F9CF905D999357
:103080000E5F1F4FCA15DB0571F7FB011582411159
:1030900008C0CB0145E050E0FA01E21BF1099F01B5
:1030A0000BC0CB01049630E24C91403391F73D9335
:1030B0008A179B0771F3F8CF482F461B50E0421741
:1030C000530714F40196F8CFDF91CF911F910F9120
:1030D000FF90EF90DF90CF90BF90AF900895982F22
:1030E00092959F708F702AE0929F800D1124089511
:1030F0006AE00E94341A20E1829F900D1124892FEA
:1031000008959C016417750751F04617570748F05A
:103110008617970720F081E04217530738F480E0C4
:10312000089586179707B8F381E0089508951F92D0
:103130000F920FB60F9211248F9380910C028F5F24
:1031400080930C028F910F900FBE0F901F901895D7
:103150001F920F920FB60F9211248F939F93EF93AC
:10316000FF93E8E7F4E0908181E089278083FF9175
:10317000EF919F918F910F900FBE0F901F90189518
:103180001F920F920FB60F9211242F933F934F93DC
:103190005F936F937F938F939F93AF93BF93EF93BF
:1031A000FF930E949704FF91EF91BF91AF919F9180
:1031B0008F917F916F915F914F913F912F910F90E0
:1031C0000FBE0F901F9018951F920F920FB60F927F
:1031D00011242F933F934F935F936F937F938F931C
:1031E0009F93AF93BF93EF93FF930E947904FF9156
:1031F000EF91BF91AF919F918F917F916F915F916F
:103200004F913F912F910F900FBE0F901F901895E7
:103210001F920F920FB60F9211242F933F934F934B
:103220005F936F937F938F939F93AF93BF93EF932E
:10323000FF930E94AF02FF91EF91BF91AF919F91D9
:103240008F917F916F915F914F913F912F910F904F
:103250000FBE0F901F90189584E080936400109229
:1032600080008BE0809381008DE790E0909389004F
:10327000809388001092850010928400EFE6F0E0C1
:103280008081826080831092B6001092B00092E03C
:103290009093B100E0E7F0E080818E7F8083109210
:1032A000B2001092C50083E38093C400E1ECF0E02B
:1032B00088E0808386E08093C20080818062808382
:1032C00052989093690081E08DBB80E880BF3A9866
:1032D00087B18C7F87B9229A2A98219A2998209AB7
:1032E000289883E284BD83E085BD18BC559A579A1F
:1032F0005F9808950E942C190E9413170E94AA1724
:103300000E94A9030E9402130E9457150E94C9102F
:103310000E940E080E94C30E0E945D150E94E90FD4
:103320000E948C060E94F4040E94B2070E941C0FA7
:103330000E943D050E94D80578948CE092E00E949E
:10334000B8170E941E130E945A150E94FA100E947C
:10335000340A0E94C80E0E9463150E94B3060E94A0
:10336000FD0F0E94FB040E94B7070E94210F0E94DC
:1033700041050E94DD050E947917DFCF21E08C32E4
:10338000920739F0909354048093530481E0809322
:103390007F0408958BEC92E090935404809353043F
:1033A00081E080937F040895E0915304F0915404E8
:1033B00091E0EC32F907F9F018169CF491E0EC3248
:1033C000F90719F025913491F9018150B9F70BC033
:1033D00091E0EC32F90721F0329625913491F90110
:1033E0008F5F8111F5CF81E0EC32F80721F03B9639
:1033F00085919491089588ED92E008952091530469
:103400003091540491E02C32390759F118169CF48C
:1034100091E02C32390719F0F9012591349181504E
:10342000B9F70BC091E02C32390721F0F90132963F
:10343000259134918F5F8111F5CF81E02C323807CF
:1034400081F0F9013896E491E11108C0F90139964B
:10345000E491EE2331F086E693E008958BE792E065
:10346000089588ED92E00895991B79E004C0991FB2
:10347000961708F0961B881F7A95C9F780950895CE
:10348000AA1BBB1B51E107C0AA1FBB1FA617B7078A
:1034900010F0A61BB70B881F991F5A95A9F78095A6
:1034A0009095BC01CD01089597FB072E16F400946A
:1034B00007D077FD09D00E94401A07FC05D03EF4E2
:1034C000909581959F4F0895709561957F4F0895D0
:1034D000EE0FFF1F0590F491E02D0994DC01CB0164
:1034E000FC01F999FECF06C0F2BDE1BDF89A319614
:1034F00000B40D9241505040B8F70895DC01CB0163
:1035000003C02D910E94891A41505040D0F7089570
:10351000262FF999FECF1FBA92BD81BD20BD0FB6EF
:10352000F894FA9AF99A0FBE01960895F894FFCF8D
:103530001401F102ED02E902E502E102DD02D90225
:103540004401000000000000000000000000000036
:10355000000000000000000000000000000000006B
:10356000210214020702FA01ED01E001D301C601B4
:10357000B901AC0151010000000000000000000092
:1035800000009F019201850178016B015E0100003E
:10359000000000000000000000000000000000002B
:1035A000000000000000000000000000000000001B
:1035B000000000000000000000000000000000000B
:0E35C00000009F019201850178016B015E0100
:00000001FF
